:020000040002F8
:10700000C05C0020C1730200C9730200CB73020090
:10701000CD730200CF730200D173020000000000A4
:10702000000000000000000000000000D373020018
:10703000D573020000000000D7730200D97302006C
:1070400025760200DB7302004D790200DB7302003B
:10705000DB730200DB73020081750200DB73020048
:10706000D9780200DB73020029790200DB73020089
:10707000DB730200DB730200DB730200DB730200D0
:10708000DB7302007D760200DB730200DB7302001B
:10709000DB730200DB7302008D760200DB730200FB
:1070A000DB730200DB730200DB730200DB730200A0
:1070B000DB730200DB730200000000000000000030
:1070C000DB730200DB730200DB730200DB73020080
:1070D000DB730200DB730200DB730200DB73020070
:1070E000DB730200DB730200DB73020000000000B0
:1070F00000000000DB73020000000000DB730200F0
:10710000000000000000000000000000000000007F
:10711000000000000000000000000000000000006F
:10712000000000000000000000000000000000005F
:10713000000000000000000000000000000000004F
:10714000000000000000000000000000000000003F
:10715000000000000000000000000000000000002F
:10716000000000000000000000000000000000001F
:10717000000000000000000000000000000000000F
:1071800000000000000000000000000000000000FF
:1071900000000000000000000000000000000000EF
:1071A00000000000000000000000000000000000DF
:1071B00000000000000000000000000000000000CF
:1071C00000000000000000000000000000000000BF
:1071D00000000000000000000000000000000000AF
:1071E000000000000000000000000000000000009F
:1071F000000000000000000000000000000000008F
:10720000DFF80CD000F07CF900480047E5B502003B
:10721000C05C002030B450E8012F93B2C4892344ED
:107220008489A34228BF1B1B0489A34202BFBFF36A
:107230002F8F002007E0C3EA020340E80134002C4E
:10724000E9D14FF001000A6030BC704750E8012FCF
:10725000C2EA024240E801210029F7D1704730B468
:1072600050E8022F1FFAA2F3C488A34202BFBFF363
:107270002F8F00200DE0C48923448489A34228BFB6
:107280001B1BC2EA034340E80234002CE8D14FF054
:1072900001000A6030BC704750E8022FC2EA224267
:1072A00040E802210029F7D17047034653E8022F36
:1072B000D988B2EB324F4FF0000017BF92B241EACB
:1072C000014142EA014104E05A68B2EB324F08BF83
:1072D000012043E80212002AE8D1704730B4044686
:1072E00054E8000F0D4644E80053002BF8D1156018
:1072F00030BC704730B4044654E8000F40EA010542
:1073000044E80053002BF7D1156030BC704730B40F
:10731000044654E8000F00EA010544E80053002B3E
:10732000F7D1156030BC704730B4044654E8000F04
:1073300080EA010544E80053002BF7D1156030BC0A
:10734000704730B4044654E8000F00EB010544E8F0
:107350000053002BF7D1156030BC704730B40446A1
:1073600054E8000FA0EB010544E80053002BF7D1CF
:10737000156030BC704770B404464FF0000054E80C
:10738000006F0D68AE4207BF44E80023012044E8C7
:1073900000630E60002B1CBF0020F0E770BC70473C
:1073A00030B4044654E8000F88422CBF451A054605
:1073B00044E80053002BF5D1156030BC7047000045
:1073C0000648804706480047FEE7FEE7FEE7FEE77F
:1073D000FEE7FEE7FEE7FEE7FEE7FEE79176020046
:1073E000017202002DE9F05F0546002092469B469F
:1073F00088460646814640241BE0284641464746CB
:10740000224600F06CF853465A46C01A914110D3F8
:1074100011461846224600F016F82D1A67EB0108AF
:107420004F4622460120002100F00DF817EB00091D
:107430004E41201EA4F10104DFDC484631462A46B5
:107440004346BDE8F09F202A04DB203A00FA02F10F
:10745000002070479140C2F1200320FA03F3194342
:1074600090407047004870479427030040EA0103AA
:107470009B0703D009E008C9121F08C0042AFAD2EA
:1074800003E011F8013B00F8013B521EF9D27047AE
:10749000D2B201E000F8012B491EFBD27047002256
:1074A000F6E710B513460A4604461946FFF7F0FF03
:1074B000204610BD0146002000E0401C0A5C002A66
:1074C000FBD1704730B504460020034600E05B1C4A
:1074D000934203D2E05CCD5C401BF8D030BD202A43
:1074E00004DB203A21FA02F00021704721FA02F36E
:1074F000D040C2F120029140084319467047000075
:10750000064C074D06E0E06840F0010394E80700F0
:1075100098471034AC42F6D3FFF776FE983E03004E
:10752000B83E030070B501EB020410F8015B15F0E2
:10753000070301D110F8013B2A1106D110F8012BE5
:1075400003E010F8016B01F8016B5B1EF9D12B070A
:1075500005D40023521E0FD401F8013BFAE710F8BE
:10756000013B02F10202A1EB030303E013F8015B0C
:1075700001F8015B521EF9D5A142D6D3002070BD9F
:107580002DE9FC410025DFF8948000954FF48076CA
:1075900001242F460195304605F06CF938B1D8F832
:1075A0000403204203D0304605F05AF92543361D26
:1075B00064007F1CB6B2082FEDD34FF4BE74204692
:1075C00005F058F948B1204605F04AF945F0004564
:1075D0006A460221002005F0ABF815F0FF0F16D027
:1075E000012600242E420ED008EB8401D1F81005AC
:1075F000D1F81015C0F30520094AC1F3014152F832
:10760000242002B190477600641C082CEAD3002D98
:1076100002DA684608F0DCF9BDE8FC810060004051
:10762000B434002070B54FF48076304604F01EFC70
:10763000114CB50560B1304604F01FFC0120C5F8BF
:107640000803607920B90120607121680020884713
:107650004FF48276304604F009FC00280AD0304608
:1076600004F00BFC0220C5F808032168BDE8704057
:107670000120084770BD00006C2900200249024823
:10768000091F096800680847A829002005F0B8BE4E
:10769000F0B54FF080527F4ED2F830017E4FD2F8D5
:1076A0003411431C08D005464FEA010400234FF073
:1076B000010C082D05D013E03B783578C3F3031493
:1076C000F4E72CB1012C03D0022C01D0032C07D1FC
:1076D0004FF08044C4F80C31C4F810316F4C236073
:1076E000441C04D005460C46082D05D061E03C78CA
:1076F0003578C4F30314F7E72CB1012C03D0022C26
:1077000001D0032C55D1664C2468664D2C60644C26
:10771000241D24682D1D2C60614C083424682D1D07
:107720002C605F4C0C3424682D1D2C605C4C103494
:1077300024682D1D2C605A4C143424682D1D2C6097
:10774000574C18342468574D20352C60544C1C3449
:1077500024682D1D2C60524C203424682D1D2C6073
:107760004F4C243424682D1D2C604D4C2834246843
:107770002D1D2C604A4C2C3424682D1D2C60484C47
:1077800030342468474D40352C60454C34342468EF
:107790002D1D2C60424C383424682D1D2C60404C2B
:1077A0003C3424682D1D2C603D4C403424682D1D34
:1077B0002C60082804D10C0002D13C4D3A4C2C60BE
:1077C000082804D10C0002D1394DFB242C60082874
:1077D00008D10C0006D192F85852364A146865F365
:1077E00003041460082804D10A0002D1324C82013B
:1077F0002260421C03D139783078C1F30311082884
:107800000DD129B1012903D0022901D0032906D1C4
:107810002A480168C90702D06FF0010101602848B9
:10782000016841F470010160BFF34F8FBFF36F8FA8
:107830004FF01021D1F80002002803DBD1F8040238
:10784000002823DA1F4AC2F800C01F480468002C31
:10785000FCD01224C1F800420568002DFCD0C1F80C
:10786000044201680029FCD0136001680029FCD0A3
:10787000BFF34F8F12487C380168144A01F4E0616D
:1078800011430160BFF34F8F00BFFDE7114910485E
:107890000860F0BDE00F00F0E80F00F03805004090
:1078A0000404001020C50040488103008C560040AD
:1078B00018F50040E40E00404096024000040040ED
:1078C00088ED00E004E5014000E401400400FA0511
:1078D0000090D003682A00202DE9F047104E0427BD
:1078E00000244FF4A0784FF4803900BF08EB8405E2
:1078F00009FA04F0715961B1D6F80413014208D0B5
:107900002946304605F038FE0648D0E900212846D1
:107910009047641CE4B2BC42E8D3BDE8F0870000A5
:1079200000800040703500200648D0F84011012941
:1079300006D1054A1170416000210160C0F8401174
:107940007047000000A00040642800200148006843
:10795000004700007429002002E008C8121F08C177
:10796000002AFAD170477047002001E001C1121FC0
:10797000002AFBD1704700000121202803DA814052
:107980000548014003E0402802DA2038814009B16F
:107990000120704700207047FC06FFBD2DE9F84329
:1079A000804643F2020659B9694607F013FAB0421D
:1079B00002D008B100F04AF99DF80000800744D4D5
:1079C0000021404607F010FA05003ED0112D3CD0B2
:1079D0001F482049401AC708022000EB07440D2D1C
:1079E0000AD00B2D1DD0B5421FD11B49204642465F
:1079F000BDE8F84305F006B920464246174905F0B0
:107A000001F91321404676DF00281ED005F0AAFDBB
:107A1000024601B020464346BDE8F04310A105F000
:107A2000F8B8204642461C49E2E7284605F09AFD90
:107A30000246012000EB0740434618A105F0E9F893
:107A40002846BDE8F84300F001B9BDE8F88300001E
:107A5000103F0300C83E030050300300DC2F03003A
:107A600073645F626C655F6761705F646973636FA5
:107A70006E6E65637428292072657475726E656414
:107A8000202573206F6E20636F6E6E5F68616E6479
:107A90006C652025642E00009C30030041737365E3
:107AA0007274696E672E20706D5F636F6E6E5F73A8
:107AB000656375726528292072657475726E6564D8
:107AC000202573206F6E20636F6E6E5F68616E6439
:107AD0006C652025642E000010B560B159B10278A4
:107AE0000B785208B2EB530F05D10622401C491CFB
:107AF000FFF7E8FC08B1002010BD012010BD800791
:107B000001D00020704701207047C3688B4206D81F
:107B100011440069491E814201D8012070470020AC
:107B2000704790F82400012801D01F207047EE20F4
:107B3000704710B501220221002001F0C5F908B1FB
:107B4000072810D107220221012001F0BDF908B158
:107B5000072808D100210A22084601F0B5F908B12A
:107B6000072800D1002010BD70B58CB015460E4618
:107B700000236C46C3F10F01415CE1545B1C102BE8
:107B8000F8D30D2104F11000FFF789FC0020C0F1AB
:107B90000F02315C2244401C11740328F7D368465D
:107BA00046DF0020C0F10F01214491F82010295434
:107BB000401C0328F6D30CB070BD00000149C97801
:107BC00000F086BD3829002072B605F0ADF800BF80
:107BD00004F0F8FE0028FBD111481249401AC408ED
:107BE000012000EB044010A105F008F811480068DE
:107BF000C00700D000BE022000EB04400EA104F03C
:107C0000FDFFBFF34F8F0B48E43801680E4A01F4C3
:107C1000E06111430160BFF34F8F00BFFDE700003B
:107C2000883F0300C83E0300466174616C206572A2
:107C3000726F7200F0ED00E053797374656D20721D
:107C400065736574000000000400FA050EB500219C
:107C50000091CDE901106A4644F20100FFF7B4FF3C
:107C60000EBD0000014801F09CBE000088290020E4
:107C70003AB100680129426100D000210161002071
:107C8000704707207047000038B511480823582274
:107C9000416800910F49006803F0DBFD002815D111
:107CA0000D4A69460D4801F081FE04000ED1012104
:107CB0000A4801F0F6FE0123094A1946074801F077
:107CC00048FE0649012008390870204638BD0000EA
:107CD000002403008C350020A10303008829002024
:107CE000FFFF7F0070B50446007F0D4608B10020FD
:107CF00070BDA26102F008FE401941F10001C4E923
:107D00000201206900B125612146BDE870400020D4
:107D100009F0B0BC014600200877012009F0AABC98
:107D200030B5EFF3108172B60D4A9468012324B187
:107D30000370002900D162B630BD93604FF0E0239C
:107D4000D3F88051074C25401560C3F88041D3F823
:107D5000844154605A17C3F8842100220270E8E776
:107D6000E4350020FC06FFBD0B498A68002A11D0CB
:107D700000280FD1EFF3108072B60B684FF0E022AD
:107D8000C2F800314B68C2F8043100228A60002832
:107D900000D162B670470000E435002070B505469A
:107DA00008680C46411C04D004F033FD206804F040
:107DB00092FC6068411C02D0002104F07AFC296822
:107DC000A069C1F82405607D227D29681043C1F8AF
:107DD0006C05D4E900122868C0F81425C0F80C1509
:107DE000207D012814D1A068411C02D0002104F09C
:107DF00060FCE068411C04D004F00BFDE06804F076
:107E00006AFCD4E902122868C0F80825C0F81015E9
:107E100070BD70B5054608680C46411C04D004F0DE
:107E200002FD206804F061FC6068411C02D0002162
:107E300004F048FC2968A069C1F82405607D217D13
:107E40002A680843C2F86C05D4E900122868C0F813
:107E50000C15C0F81425207D012814D1A068411C00
:107E600002D0002104F02EFCE068411C04D004F094
:107E7000DAFCE06804F039FCD4E902122868C0F8A2
:107E80000825C0F8101570BD03F078BA2DE9F04749
:107E9000814605884A484FF000088AB0017842467A
:107EA000284600F02DFC99F80500400701D4002178
:107EB00076E005F58077B8B205AB0122072106F020
:107EC00013FC04003F48404A4FF00101A0EB0200C0
:107ED0004FEAD00001EB00460AD0204605F042FBF5
:107EE000024630462B46394904F093FE214629E0EC
:107EF000284602F0BBFF4FF6FF71044688422BD1A3
:107F00008A46069802F01CFF0446504510D00146F0
:107F1000284602F08BFF2846FFF750FEE0B92846BE
:107F200008F0F4FC2846FFF749FE0028BFD013E014
:107F300006F0B0FD0446504508D1304624A104F0B7
:107F40005DFE0421284608F00FFDB0E701462846F3
:107F500002F06CFF4FF00108B8B22246072106F08C
:107F60003BFC07001BD0862F1ED005F0FBFA024613
:107F700030462B462349009404F053FE39462846E8
:107F800008F0F2FC0021484606F0A6FAB8F1000F0E
:107F900002D0204602F054FF0AB0BDE8F08701216C
:107FA000484606F099FAF7E7142217496846FFF7A2
:107FB0005DFAADF80250684601F024FFEFE70000DB
:107FC00038290020183F0300C83E030098330300FF
:107FD000436F756C64206E6F7420616C6C6F6361AD
:107FE0007465206E657720706565725F69642066D0
:107FF0006F7220696E636F6D696E6720626F6E6469
:108000002E000000B43403009C2303002DE9FC473C
:10801000002517880646158090F82D0014468946DD
:1080200030B13A462146484600F004FC051E09D10D
:10803000B0784FF00C0A18B32088C846001DB8422B
:1080400002D95046BDE8FC87684679DF0028F9D19F
:108050002088032108F8001020881921401C80B2D4
:10806000208008F800102088401C80B2208000EB9F
:108070000801BDF8000009F0C0FC218808442080F8
:10808000F0780222C8B1218896F9033001F1030C7F
:108090004846BC45D5D8425421884FF0010C491CB4
:1080A00089B2218000F801C02188491C89B2218051
:1080B00009F801302088401C20807068B8B1218800
:1080C00090F9003001F1030C4846BC45B9D8425440
:1080D00021880A22491C89B2218042542188491CE6
:1080E00089B2218009F801302088401C2080308925
:1080F00050B1CDE900474B460622022106F10800A7
:1081000009F05AFD051E9DD1308A50B1CDE90047D6
:108110004B460722032106F1100009F04DFD051E14
:1081200090D1308B50B1CDE900474B461522142138
:1081300006F1180009F040FD051E83D1306A30B108
:108140003B462246494601F063F9051EDBD1706AC1
:1081500030B13B462246494603F056FA051ED2D1BD
:1081600096F82C0038B13B4622464946304608F086
:1081700037FD051EC7D1307838B13B462246494607
:10818000304603F0CFFA051EBDD128465AE718B590
:1081900004460020ADF8000013466A46204600F071
:1081A00006F8002802D0BDF80000204418BD70B5C4
:1081B000E0B1DAB1002402E0045D2C44A4B2651CF5
:1081C0008D4206D21688A642F6D8061976789E42C7
:1081D000F2D18C420AD2A31C005D9BB200B1401EBA
:1081E0000004000C02D01C188C4201D9002070BD84
:1081F000138070BD80F8301070472DE9F0410D00FC
:10820000044606D02CB195F87A000026012803D048
:1082100006E00E20BDE8F08195F89800012821D0F5
:108220004FF00108A6702C2205F17801201DFFF700
:108230001DF984F83060D5F8A4006063D5F8A80073
:10824000A0634FF6FF70A4F8240404F58260C4F81C
:108250002004C4F82664A4F82A6484F82C642078E6
:1082600010B104E00720D5E7FF2084F8540004F1A2
:1082700055072046C4F81074FFF753FCA4F8140403
:1082800004F2144239462846FFF7C0FE0028C1D147
:1082900004F23120C4F818042046FFF742FCA4F889
:1082A0001C0404F21C4205F13C00D4F81814FFF73A
:1082B000ADFE0028AED184F85180208BA4F8480090
:1082C00084F83C80266484F8506060690021606412
:1082D000454604F13C02781E72DF00289AD12570D1
:1082E00098E710B50288102A1BD0112A20D0262A20
:1082F0001DD1007A0C46012801D0022817D1A078A0
:108300000521401CB0FBF1F201FB1201204600F0F8
:108310001DF800280BD0A16B002908D0BDE8104043
:108320000847C27B012A02D18088A1F8240410BD2D
:108330000C46002184F82E148088B4F82414884256
:10834000F5D120790028F2D10121DFE72DE9F05F96
:10835000044600780F4698B1A7700025C4F826544B
:10836000A4F82A5484F82C54A079012608B1012FCE
:1083700009D0E07980B1012F05D0022F03D00BE0A6
:108380000820BDE8F09F616B21B184F82D640820BE
:10839000884701E084F82D5404F2274100200A5C4C
:1083A0000AB1304603E0401C0628F8D300204FF005
:1083B00002084FF0030B012F06D0022F0CD0032F21
:1083C0000FD0042F15D110E0A17929B194F8241011
:1083D00011B908B130460DE0E17911B108B140465C
:1083E00008E0207A08B1584604E0607A08B1042019
:1083F00000E02846A070616B41B1032801D0042839
:1084000004D1607910B194F82E0498B184F82F54F7
:1084100004F13C0018210746FFF741F884F83C605E
:1084200004F12C0006F032FC58B194F82C0084F8CA
:10843000510008E084F8305484F82F6407208847FE
:10844000E6E784F8516094F8240058B104F128005C
:1084500006F01CFC20B194F8280084F8520001E0DA
:1084600084F8526084F85050A27804F2264104F552
:1084700082694FF0060A052A64D2DFE802F07C0325
:108480000F22420084F83160C4F82054C4E910156A
:1084900084F83C808020A4F8480055E084F83180BE
:1084A00094F82420384612B10722027001E080F8C7
:1084B00000B0228A8281C4F820544160E168B9602A
:1084C00042E06069B860208BB88194F824003D4692
:1084D0000028204602D084F83CA001E084F83C60EB
:1084E00009F046FB50B185F814800421204601F0C4
:1084F000C2FE38BB052184F8311021E084F831B088
:108500001EE0E069B860208CB88194F824003D46F4
:108510000028204602D084F83CA001E084F83C60AA
:1085200009F026FB48B185F814800421204601F0AB
:10853000A2FE38B984F831A002E0042084F83100AA
:10854000C4F82094A07878B13A4604F15400D4F8E5
:10855000201472DF00287FF414AF94F8301094F8E0
:10856000540073DF0028F6D1616B11B194F831002B
:108570008847002005E784F83150F5E770B504001E
:1085800012D001461C221448FEF770FF1248134D0A
:108590000560206850B17ADF002806D120680168A4
:1085A00029604068686005E00E2070BD0B487BDFE5
:1085B0000028FAD108484FF6FF711438084A20F80D
:1085C000041B0549343901600021FFF751FB0028E5
:1085D000EBD0032070BD00000C310020802800206B
:1085E000091B030010B5044600F0A6F8002805D0CA
:1085F0002146BDE81040024803F0AAB910BD0000B2
:108600003831002070B515460E46044609F0BCFA14
:10861000002809D0054800EB8400C0692A4631468D
:10862000BDE8704001F054BE70BD0000283100204C
:1086300010B5044600F080F8002805D02146BDE8BA
:108640001040024803F084B910BD00004031002002
:1086500010B5044600F070F8002805D02146BDE8AA
:108660001040024803F074B910BD00003C310020F6
:1086700070B50546002400F05FF838B1294604487B
:1086800003F066F908B1022400E00124204670BD21
:108690003431002070B50546002400F04DF838B1A3
:1086A0002946044803F054F908B1022400E00124EB
:1086B000204670BD3031002010B51821034803F06A
:1086C00022F9182800D0C0B210BD000028310020C7
:1086D00070B505460C46084609F056FA60B12846C2
:1086E00000F02AF840B10548294600EB8400BDE8B7
:1086F00070401C3003F02CB9002070BD28310020E0
:1087000070B5054616460C46084609F03DFA0028A5
:108710000ED0284600F010F8002809D0054832464F
:1087200000EB84002946BDE870401C3001F09EBD7E
:1087300070BD000028310020142801D300207047AC
:108740000146014803F004B92C31002070B540B156
:108750000C4D297839B1044607F07EFD28B1002080
:1087600070BD0E2070BD082070BDE868062807D2D5
:108770000549226801EB8001401C0A60E860EEE7D1
:10878000042070BD88280020A431002010B558B105
:1087900003684BB142683AB1044900200124C86023
:1087A0000C70C1E9013210BD0E2010BD88280020D8
:1087B000002827D0002925D0134A1278002A21D07A
:1087C0000A460188112911D0302907D0322909D051
:1087D000332917D1011D104605F0A8BB011D104615
:1087E00005F07EBC011D104605F0B0BA8088B2F8D5
:1087F000CA12884206D1002082F8C8024FF6FF70E4
:10880000A2F8CA02704700008828002048B1084A30
:10881000137843B1D26832B190F8C8222AB111203E
:1088200070470E2070470820704701F039B80000EB
:10883000882800207CB5054608880C4609309042FF
:1088400001D90C207CBD68466DDF0028FAD1218853
:108850000820685420881B21401C80B220802954A5
:108860002088401C80B220802844DDF8011001607F
:10887000BDF8051081802088801D80B220809DF881
:108880000010490800D0012129542088401C208074
:1088900000207CBD38B5044606F0AAFD2288212AB6
:1088A0002BD012DC1A481B49102AA0EB01004FEA1A
:1088B000D0004FF0030101EB00400ED0112A0BD184
:1088C000BDE8384014A104F099B93B2A1BD0562AC0
:1088D00002D1A088132176DF38BD13A104F08EF9F0
:1088E000072000F013FBA188124803F047FAA18883
:1088F000BDE838401048FFF789BF00200090A088ED
:1089000069468FDF38BDA088132176DF38BD0000AF
:10891000883F0300C83E0300446973636F6E6E6551
:10892000637465642E000000436F6E6E656374654A
:10893000642E0000B02A00206822002010B51A4CD6
:108940000188606810290ED011292BD1401E60606B
:1089500028D1FFF7EEF8002824D02168002921D083
:10896000BDE810400847D0B900210122084600F0B8
:10897000ABFA08B107280FD107220221012000F02D
:10898000A3FA08B1072807D104220221002000F031
:108990009BFA20B1072802D0216801B1884760689E
:1089A000401C606010BD0000782800202DE9F047D1
:1089B00001883B4E40F2F3194FF6FF7510291BD08A
:1089C00011293ED0122954D0502946D1C188F289AC
:1089D000841D914241D1618902293ED18688304669
:1089E00002F0F2FA050038D004F10C0000F0ACF906
:1089F000A8B3294630464EE0C17B8788044601294A
:108A00002BD1A846284602F0DFFA050017D02F80A8
:108A100000202872234843464A460168C5F80A10D8
:108A20004068C5F80E0004F1100105F10A0002F0DB
:108A30008FFB6872F08900280FD129462AE00420B4
:108A400013E0808802F0C0FA040006D06068FFF7E7
:108A500061F908B107F06CFF2580BDE8F087FFE7FA
:108A60006868FFF757F90028F7D0BDE8F04707F02E
:108A70005FBF87880646384602F0A6FA0400ECD0AD
:108A80002B464A4606F1080104F10A0002F060FB99
:108A9000607221463846BDE8F04700F0FFBC000098
:108AA0000C310020802800202DE9F04F04468688F4
:108AB0000188424897B0834610290CD0112950D024
:108AC000103019296AD01A2974D1217A0C09042C82
:108AD0004DD301224CE0394D083DA868C0430B90AE
:108AE00069680BA802F058FF0B990CA800F071FC04
:108AF0002C220CA96846FEF7B9FC0027E946A846D7
:108B000010E000BF09EB47005FF00005B0F804A0DB
:108B100008EB85005146001D02F0DAFE6D1C1E2D8B
:108B2000F6D37F1C0098B842ECD8142E05D317B0AA
:108B30000420BDE8F04FFFF789B83146584602F0EF
:108B400012FF314608F1040002F00DFFE07B02281D
:108B500030D117B03146BDE8F04F1848001D02F083
:108B600002BF17B03146BDE8F04F02F0B1BE00229F
:108B7000314601F07BFB032C01D3012200E00022EF
:108B80000E4831460C3001F071FB022C01D301225A
:108B900000E0002209483146083006E0217A002929
:108BA00008D1617AC1F3C002314617B0BDE8F04F79
:108BB00001F05CBB17B0BDE8F08F00003031002041
:108BC00010B504460748007800280AD0204602F075
:108BD00029F8204608F0D0F92046BDE8104001F001
:108BE000CFBC10BDC828002020B10181C28280699D
:108BF00003F00CB80E207047E8B1E1B10A68D2B1B9
:108C00008B68C3B104C04A6804C0896801614FF62B
:108C1000FF7120F8081B0021C180012100F8021912
:108C200042F6062220F8022900F8021941F6020154
:108C30000180FFF78BBD0E207047C08A002800D04E
:108C4000012070471FB50088112811D14FF6FF7021
:108C500008810C460846FFF7F0FF002808D00220E4
:108C60008DF8000022686946204690470020E08287
:108C70001FBD00007FB5002400940194029403946A
:108C80004A88ADF802200B7801F10E027BB1022B6D
:108C900001D0012B0AD101218DF80010BDF80C1074
:108CA00009B18DF800400268694690477FBD8B8806
:108CB000A3F5C055023DF9D18B79012BF6D10023E4
:108CC00016E000BF03EBC30532F81560A6F60626D2
:108CD000B6F5005F0BD102EB45052E79760706D578
:108CE0002E6801966E6802962D89ADF80C505B1CBB
:108CF0000D7A9D42E6D8D1E733B589B00446FFF737
:108D00009CFFE8B10AAD20216846FEF7C8FB0D497B
:108D1000CDE9021401208DF80000E18AADF81210AF
:108D200002218DF810100021ADF81410ADF81600D6
:108D3000069522896946A06902F0A0FF0BB030BDFC
:108D40000520FBE707A30200007800F00100704750
:108D50000149085C704700009F210300094908B5DC
:108D6000085C0090684603F0FBFCD0F80425009BEB
:108D70000121994021EA0203C0F808351140C0F8EA
:108D80000C1508BD9B2103000249085C012103F07A
:108D900054BD00009B2103000249085C002103F040
:108DA0004CBD00009B210300084908B5085C0090F9
:108DB000684603F0D5FCD0F804050099C84010F0CF
:108DC000010000D0012080F0010008BD9B210300BC
:108DD00010B500242046FFF7D7FF641C042CF9D3FC
:108DE00010BD10B500242046FFF7D6FF641C042CEC
:108DF000F9D310BD10B50246064B4FF0FF300021ED
:108E00005C5C944201D1084610BD491C0429F7D38B
:108E100010BD00009F21030010B5002000F066F98E
:108E200008B1062806D1012000F060F908B1062833
:108E300000D1002010BD00002DE9F0470D4681460D
:108E4000FFF7D8FF0446042836D2DFF874801B48A9
:108E50001C4EA8F10C0725B3012D0ED0022D2BD1ED
:108E600004EB440030444578002D25D0B968002932
:108E700022D02846BDE8F047084704EB4401755C62
:108E80000E44717849B10E4A4FF48041093A806826
:108E9000FEF728FF08B987F80390B17808F80410A6
:108EA000E2E78068FEF736FF04EB4401314418F82E
:108EB00004008D78A842D7D0BDE8F087A421030034
:108EC00074280020A830002070B50023042810D298
:108ED0000D4D00EB4004012A02D101290CD00022E3
:108EE000094E00EB4000304461B1012906D002294F
:108EF00006D00723184670BD0E30C2B22A55F9E7D6
:108F00004270F7E78270F5E7A8300020044A014676
:108F100000201279D20702D0084600F003B870474B
:108F2000682800202DE9F05F6E4C05460026607829
:108F3000B34618B184F801B002F062F96A4F4FF4F9
:108F40007A694FF4C87A4FF00108182D69D2DFE82A
:108F500005F00C1313384754696E727B727BC5841D
:108F600084848484B3B6B9BCC5C502F049F93868B5
:108F7000FEF7D0FE06465CE00020FFF715FF002854
:108F80004FF0000008D0FFF7FFFE022D02D14FF492
:108F9000E16008E0484606E0FFF7FEFE022D01D141
:108FA000C82000E05046410CC0034FF47A7280188C
:108FB00041F10001257052000023FEF713FA01462B
:108FC0002AE00020FFF7F0FE00284FF0000004D058
:108FD000FFF7DAFE4FF44870E5E7FFF7DDFEDFE765
:108FE0000020FFF7E1FE00284FF0000002D0FFF75D
:108FF000CBFECFE7FFF7D0FED4E70020FFF7D4FE8B
:1090000000284FF0000002D0FFF7BEFE01E0FFF79E
:10901000C3FE257040F6CD4100223868FEF762FE9F
:10902000064646E00020FFF799FE257008E0002084
:1090300051E025703DE084F801800120FFF78EFEAD
:10904000002240F26661E8E784F801800120FFF722
:1090500085FE00224FF40051DFE77868FEF75AFEE4
:109060000646D5F1110000D02EB10220FFF78CFE8C
:1090700084F802B01DE0012816D980B2C821484307
:10908000C117C90341EA5041C0034FF47A728018F6
:1090900041F1000152000023FEF7A4F9014600222D
:1090A0007868FEF71FFE06460220FFF775FE84F87B
:1090B00002803046BDE8F09F02F0A2F8B9E702F066
:1090C0009FF8B4E702F09CF804E002F099F8002061
:1090D000FFF762FE0120FFF75FFEAAE7FFF781FEC0
:1090E000A7E7000068280020A4210300012108F060
:1090F000CBBD00002DE9F84F0546861C00208DF8F9
:10910000000091460F464FF0010A6846FEF708FE40
:109110001B4C04F21C4860683860D4E90101194F07
:10912000401A3968081A0EE00121404602F02EFC70
:1091300002F006FA0146404602F028FCD4E901019B
:10914000401A3968081A401C8642EDD8B9F1000F60
:1091500003D0052065F3891002E0062065F39F50D7
:1091600061683A68114004EB8101C860606830446E
:1091700060609DF80000FEF7F7FD5046BDE8F88FEF
:109180009C380020102A002070B50D4604460A299C
:1091900002D10D21FFF7F8FFA0682268411CA160F1
:1091A0001554D4E90101814204D32046BDE8704042
:1091B00002F0E7BE70BD000004488168406881424B
:1091C00001D1012070470020704700009C3800202A
:1091D0001CB5044601F04AFE00236A46092105F049
:1091E000C5FB052805D10348012241792046FFF738
:1091F00087FA1CBD982800201CB50446002000906A
:1092000042F6A620ADF8000001208DF802000848C3
:1092100001AA6946006801902046A0DF002805D118
:109220000448012281792046FFF76AFA1CBD00003C
:109230004C2203009828002005494FF0FF320828EF
:1092400041F8202002D3084480F8582070470000DD
:10925000B4340020F0B54FF0FF3512B100230826DA
:1092600001E008230C260C4C05E000BF54F82370E5
:109270007F1C04D05B1CB342F8D32846F0BD2618EF
:109280005DB286F8305044F82310002AF5D1E11879
:1092900081F85800F1E70000B43400200249084486
:1092A00090F9300070470000B434002030B589B028
:1092B0000D46044620216846FEF7F1F894F8C602F0
:1092C000002300EB8001C1EB801094F8C51204EB81
:1092D000400041B1491EC9B201EBC10100EB41019F
:1092E000498A491C00E0C188008961F30F0360F3DB
:1092F0001F4303208DF800000548CDE9020405480E
:1093000004932A466946806802F0B8FC09B030BD73
:10931000519802008828002070B504464FF6FF756A
:109320000A462846AC4209D14FF4807421461046C3
:1093300002F0E9FA80B2A0420BD070BDFF2CFCD83D
:109340002146104602F0CFFA90F0010F01D02046DE
:1093500070BD284670BD000070B5084C050009D0EE
:1093600010342168002907D0086820604968284621
:109370008847F6E70834F4E770BD0000A034002009
:10938000054A012120B1012805D19170FFF7E4BF02
:1093900051700020FAE77047A034002010B5D0E9E2
:1093A0000234D1E90220D11AA04101D3012010BD1D
:1093B000002010BD10B502460020138806E0546856
:1093C00034F810408C4203D0401C80B28342F6D85F
:1093D00010BD73B58CB00646002000900D9880B18A
:1093E00000246D4621460DA802F0B2FA30B1009873
:1093F00005EB400084800098401C0090641C142CF5
:10940000F0D32C2269463046FEF730F80EB070BD1E
:109410002DE9F04117880646B81D14460D469842BE
:1094200002D90C20BDE8F0813188072206290AD331
:109430004FF4486C4FF6FF73614501D9994202D150
:109440007088062801D21046ECE7604501D99842A1
:10945000F9D1994203D0984201D08142F3D8052036
:10946000E85520881221401C80B220802954208891
:10947000401C80B220804119308808F0BEFA218853
:10948000084480B220804119708808F0B6FA21881B
:10949000084420800020C5E7FEF7D8BB38B54A7ADB
:1094A0000F4B62B100220A725969002906D00122CD
:1094B0008DF80020ADF802006846884738BD0A7A6A
:1094C00062B19B684C68024619462046FEF70AFCCA
:1094D0000028F3D0BDE8384007F02ABA5B68F1E70E
:1094E0000C310020F0B585B016460F4604461D46E7
:1094F00014220B496846FDF7B9FF0A488DF8087039
:10950000ADF80240ADF80A608DF80C5001780022E9
:109510002046FFF7F5F8684600F074FC05B0F0BD92
:10952000B023030038290020FEF738BA70B588B0A0
:109530000646002005900690ADF81410ADF8161000
:109540000190029001AA05A9304690DF050021D0C4
:1095500004F008F80346114811493246401AC10880
:10956000012000EB014004460E4903F052FBBDF818
:10957000042012B9BDF8060028B1BDF80630204617
:1095800009A103F046FBBDF808201AB12046164990
:1095900003F038FB08B0284670BD0000E83E030029
:1095A000C83E0300C42B03005468652072657175C2
:1095B00065737465642054582F5258207061636B32
:1095C0006574206C656E67746820697320746F6FB2
:1095D000206C6F6E672062792025752F2575206FAE
:1095E00063746574732E0000102C0300014601485B
:1095F000FFF740BB802A002070B5044609480121CE
:1096000002F0DFF9BFF35F8F0025002808D1204664
:1096100001F010FF002803D1BFF35F8F0148056000
:1096200070BD0000A42800202DE9FF410C4620B1A8
:109630004FF4064004B0BDE8F0812079002748F2DD
:10964000096538B141F61D5601281BD0022826D0E5
:10965000681DEFE70220207102970397E0680190F0
:10966000694601A806F018FD50B102988188E18092
:1096700000882081BDF80010029806F08BFDD9E724
:109680002846D7E70A4B6A460021A01D06F0BCFC1D
:1096900038B1074918398F61CF61A842CAD1304625
:1096A000C8E703488188019806F074FDF5E70000DB
:1096B000C82900202DE9F04389B00F4605469146A0
:1096C00020216846FDF7EBFE95F8C60295F8C542E5
:1096D00000EB8001C1EB801005EB400604EBC400F9
:1096E00006EB40013279601C0A31904232D108AB5E
:1096F0000022284601F04EFD78B310E0401EA04243
:1097000001D1002004E004EBC40006EB40001C3053
:109710008046024608AB284601F03CFD90B100208F
:10972000387004208DF8000008984A46CDE90350AF
:109730000C4802900C486946806802F09FFA09B014
:10974000BDE8F08395F8C5024146401C641C85F8CD
:10975000C502E4B23079A042D0D801203870002090
:10976000EDE70000519802008828002030B59FB036
:109770000C4605467C216846FDF791FEADF8024097
:1097800003208DF80000044801954168002901D0AC
:10979000684688471FB030BD882800202DE9F04179
:1097A000044690F8C602884600EB8001C1EB8010A9
:1097B00004EB40061746304606F04EFD050042D049
:1097C000D4F8CC0206283ED204EBC0107622A0F8D2
:1097D000D272D4F8CC02314604EBC01000F53570DB
:1097E000FDF744FE0026B8F1000F06D0D4F8CC02F5
:1097F00004EBC01080F8D06206E0D4F8CC1202204E
:1098000004EBC11181F8D002D4F8CC0204EBC010F3
:10981000C0F84C53D4F8CC020C4D401CC4F8CC0218
:10982000E96888420FD12746002407E007EBC411FE
:1098300001F53470D1F84C138847641CE868844201
:10984000F4D3C7F8CC62BDE8F0810000882800207E
:10985000F0B515469FB0002281F8C822074691F85E
:10986000C6020C4600EB8002C2EB801001EB400008
:1098700006F0F2FC060009D07C2208496846FDF794
:10988000F5FDADF8025068460197B0471FB0294674
:109890002046BDE8F040FFF769BF0000D02103007B
:1098A000F0B50D4689B004464FF4BA61FDF7F7FDF7
:1098B00020216846FDF7F3FD154E2946B06802F0F9
:1098C000A5F9002821D1A4F8CA52C4F8CC0284F822
:1098D000C70284F8C60284F8C5020E4801272A464A
:1098E0000068206002208DF80000ADF8107020683C
:1098F000CDF812000848CDE902046946B06802F0CC
:10990000BDF9002801D184F8C87209B0F0BD00008B
:1099100088280020A43100205198020010B50021B1
:10992000024802F04EF880F3100010BDB83C002051
:109930004FF480328A400168C1F848230068C0F8BB
:10994000082370474FF4A07202EB810189B200F046
:109950001CBA2DE9F04105460E464FF4A07000EB0D
:10996000860081B228684FF48034B440984622F0D3
:109970007F47C0F808432868C0F84843286803F0C8
:1099800085FB286800EB8600C0F840752868C0F8A1
:109990004443B8F1000F02D02868C0F80443BDE882
:1099A000F0810068D0F804057047000070B5437975
:1099B000234C44F823204279231D03EBC202224C9E
:1099C0001579204A121BD4082DB10825022000EB7E
:1099D00004401EA130E005680A88C5F8082590F902
:1099E00004208978002A4FEA411104DB02F1E022C9
:1099F00082F8001405E002F00F0202F1E02282F882
:109A0000141D90F904100122002909DB01F01F0543
:109A100002FA05F54909890001F1E021C1F8005178
:109A20004179002503EBC1010A71417943F8310006
:109A3000032000EB04400EA103F0E0F8284670BDBF
:109A4000A4290020683F0300C83E0300525443206D
:109A5000696E7374616E636520616C7265616479AF
:109A600020696E697469616C697A65642E00000012
:109A70005254433A20696E697469616C697A65640D
:109A80002E00000090F90400002809DB00F01F02FE
:109A9000012191404009800000F1E020C0F800124F
:109AA00070470A46022100F067B94FF4827100F056
:109AB0006CB90068012101607047006801214160B4
:109AC00070472DE9F05F07460C464FF4A07000EB9D
:109AD00084001FFA80FA38684FF48036A6409B460F
:109AE00022F07F45C0F848633868C0F808633868DA
:109AF000D0F8048500EB8402D2F84095C2F8408586
:109B00005146386803F0C2FAA9EB080020F07F4004
:109B1000012806D1102003F097FD5146386803F064
:109B2000B5FA3868D0F80485C0F84463A5EB08019D
:109B300021F07F413868012900EB840010D0C0F883
:109B400040553868D0F804156FF07F4C6A1A521EE1
:109B500022F07F42ACEB0B03934217D362B118E0C3
:109B60006D1CC0F84055102003F06EFD3868D0F829
:109B7000040540450AD10CE000EB84006D1CC0F8E0
:109B800040553868D0F80405884202D00D20BDE861
:109B9000F09F01223146384600F0EEF80020F6E74B
:109BA00013460A460021FFF79DBC00002DE9F8434B
:109BB000104D0F4680461E4691466946286801F0C2
:109BC0005BFE040014D01C21FDF769FC012020710C
:109BD000C4F81490380BC4F80080C4E902606946E8
:109BE000286801F06AFE06F035F90020BDE8F88328
:109BF0000420FBE7B024030010B503780022072BF4
:109C000006D2DFE803F005040610202930000A70B0
:109C100010BD01230B7003898B818388CB81C068C1
:109C200088600A7410BD02220A7002898A818288C3
:109C3000CA81C2688A60807D062802D0002008742C
:109C400010BD0120FBE703220A70C2888A810289C5
:109C5000CA81C068886010BD04230B70C0888881E9
:109C6000CA818A6010BD0520087010BD70B5064D10
:109C70000646002455F8241009B130468847641C74
:109C8000042CF7D370BD00000C36002030B504461C
:109C9000006887B00D46806800281FD018216846EC
:109CA000FDF7FDFB0195A0680590207910B1012812
:109CB00010D107E001208DF8000020690290E068D3
:109CC000039005E002208DF80000E0680003029098
:109CD00060690490206881686846884707B030BD95
:109CE000F0B585B017460C0005463AD0112C38D097
:109CF000082C36D01C481D49401AC6080D2C11D01E
:109D0000204603F02FFC0246012000EB06402B46C4
:109D1000174902F07EFF2A460721684601F060FDE0
:109D200002941BE0022000EB06402A46114902F093
:109D300069FF2A460321684601F052FD27B13878B1
:109D4000C00701D0012000E002208DF808000020AB
:109D50008DF80C0041F20110ADF80A00684600F0E1
:109D60005FF805B0F0BD0000203F0300C83E0300CF
:109D700080360300703503000368C3F84413002ADB
:109D800002D00068C0F80413704710B5006842584C
:109D90001AB103F07BF9012010BD002010BD0000B6
:109DA00010B50446408801F061F8A08002480168BF
:109DB0002046BDE810400847A028002010B5044602
:109DC000808800F09DFF6080024801682046BDE861
:109DD00010400847B02800202DE9F0410746002434
:109DE000064E074D05E000BF56F824103846884758
:109DF000641CE8788442F7DBBDE8F081543400202D
:109E0000C828002010B50446408801F02FF8A08033
:109E1000024801682046BDE810400847702303004F
:109E20000149096808470000EC23030070B586B0BB
:109E3000044614216846FDF732FBA0890125A0F5F0
:109E40004040ADF8040020782F4E062833D2DFE8DA
:109E500000F0320303032C4AA08900F0EBF930B97B
:109E6000E08943F6FE71A0F54040884223D8A07BEC
:109E70008DF80800207803280FD000208DF8090005
:109E8000A0680390606850B109208DF800006068F8
:109E90000490684604F0BCFC0DE00120EEE70820C9
:109EA0008DF800008DF81050F3E7A08900F0C2F99A
:109EB00008B1E08930B17078002801D004F0FCFDD1
:109EC00006B070BD606830B10B208DF8000060688E
:109ED00002907570DDE70A208DF80000BDF80400DF
:109EE00004F08EFEF5E7606848B114208DF800009C
:109EF000606802904FF6FF70ADF80400C9E71320C8
:109F00008DF80000F6E70000B428002038B50446BC
:109F10000F480078B0B1A4F57F40FF380FD06846F5
:109F200005F03CFE88B10521017001210171C4805A
:109F3000684605F041FE05F07FFF002038BD48F27D
:109F4000036038BD48F2016038BD48F2076038BD93
:109F5000D02900200D4808B5007888B1684605F082
:109F60001DFE80B106210170684605F025FE0848F7
:109F7000017809B10121017305F05EFF002008BDE1
:109F800048F2016008BD48F2076008BDD0290020F2
:109F9000D0360020F0B587B014216846FDF77FFA6F
:109FA000304C207818B16846FFF760FE57E0201D5E
:109FB00001F0E9FC98BB40F6F8700168481C02D13A
:109FC0004FF0102041694FF08050026940694B1CEE
:109FD00001D100FB02F1244800220161A1F54051AA
:109FE000C160224902F062F9002823D121481C23D4
:109FF0008C221F49006801F02CFC04F095F9050043
:10A0000016D0022D14D000270126062D14D005A845
:10A0100005F0C4FD98B106700C2D1BD200E01EE0C7
:10A02000DFE805F018101810181718171812141276
:10A0300048F20A6007B0F0BD26706760B3E748F2E7
:10A040000760F7E7077105E0032100E002210171D5
:10A0500000E0067105A805F0AFFD05F0EDFE00205B
:10A06000E8E70000D02900206C2A0020C02403006B
:10A070001C3600202824030038B5040014D069469B
:10A0800006F00AF8B0B1BDF8000000EB80010B4803
:10A0900000EB8100C16851B1A17A41B1C168491E8C
:10A0A000C1600020A07238BD48F2046038BD48F29B
:10A0B000056038BD48F2096038BD0000A8360020B0
:10A0C0001FB501A9684605F09FFF04B010BD07B594
:10A0D00013460A466946002005F096FF0EBD07B5F7
:10A0E00013460A460021684605F08EFF0EBD20B1DA
:10A0F00019B1006808600020704748F2046070479A
:10A10000F8B50D46040018D0BDB1694605F0C4FF8E
:10A11000B0B1BDF800000C4900EB800001EB8000FD
:10A1200001210C30666801F031FC2E6060680C3053
:10A1300068600120A0720020F8BD48F20460F8BDFC
:10A1400048F20960F8BD0000A836002018B10323CA
:10A15000002207F0E5BE48F20460704702230022A7
:10A1600007F0DEBE094910B50A69042A0AD0084A78
:10A17000096942F8210005480121103001F006FC70
:10A18000002010BD48F20B6010BD0000B029002077
:10A190000C3600202DE9F84F044624480078D8B149
:10A1A000F4B112212046FDF77AF90320DFF8809000
:10A1B0002080002504F1100804F10E0A05EB85014A
:10A1C00009EB810630897189084487B2706804F010
:10A1D00035F8032807D009E048F20160BDE8F88FA0
:10A1E00048F20460FAE72088401E20806088F16809
:10A1F000084460802089718908442081608938443E
:10A200006081C7F58060A18980B2814200D2A081BF
:10A210005346A21D211D2846CDF8008005F0D8FF29
:10A220006D1CADB2022DC9D30020D7E7D029002084
:10A23000A836002043F6FE71A0F54040884201D8C0
:10A24000012070470020704710B504460078182898
:10A2500002D1FEF731FA207010BD10B50446007827
:10A26000182802D1FEF728FA207010BD0AB101F0BB
:10A270007ABB01F02DBB70B50D460446B0F814143E
:10A28000D0F810040122FDF782FF00B1057004F13F
:10A290003C0204F5826104F1540072DF70BD0000DD
:10A2A00070B5134600220546112900D10122074C42
:10A2B00033B12179FEF724FA00226178284600E0C4
:10A2C0006178BDE87040FEF71BBA0000402900200D
:10A2D000F7B517460E0011D00098002560B1002494
:10A2E0002146684601F034FB18B1A0B23946B047A8
:10A2F0006D1C641C142CF3D32846FEBD0020FEBD4B
:10A30000406805F0F7BC4968002900D0084770474D
:10A3100070B50D4601F11004C98A102901D9092030
:10A3200070BD02F070FD686030B1E2880023A16862
:10A3300002F0CFFD002070BD042070BD70B50D4649
:10A3400001F1100489690988102901D9092070BD1B
:10A35000891C02F058FD686068B100230222A168E0
:10A3600002F0B7FDA068E16802230288686802F085
:10A37000B0FD002070BD042070BD000070B510B1AC
:10A380004FF4064070BD1C4C0025207B08B125739E
:10A3900001E000F0A5F8207808282AD2DFE800F0D4
:10A3A0002904080C10291422BDE8704000F026B8DA
:10A3B000BDE8704000F082B8BDE8704000F064B8BD
:10A3C000BDE8704000F040B80620207060880A495F
:10A3D00000EB8000283901EB80004068BDE8704048
:10A3E00003F082BF072020706560BDE8704003F075
:10A3F00089BF48F20E6070BDD03600201149F0B41C
:10A400008A1C00200346A1F128050C18A67A4EB13B
:10A41000A37200EB800405EB8404E66816B9247C83
:10A42000012C0AD0401C80B20228EED30B704B8066
:10A430004B60F0BC41F61D5070471080F0BC00F03E
:10A440003DB80000D03600200C48418801EB810265
:10A45000A0F1280101EB8201CA6852B10521017007
:10A46000074802218180016800230122054801F08C
:10A4700081BE042202704968F6E70000D036002051
:10A48000D82900206C2A002038B50A49084803243E
:10A490000B684268898803EB810153880470DB1CD8
:10A4A00000201B0400909B0B034801F0B7FF38BD50
:10A4B000D0360020D82900206C2A0020074910B58A
:10A4C0004888091D05F038FE18B1BDE81040FFF7B7
:10A4D000DBBFBDE81040FFF7B7BF0000D03600205B
:10A4E00070B5194C0121207808281AD2DFE800F055
:10A4F0000419191C252929182089134A401C208178
:10A50000002060802073283A00EB800312F823308B
:10A5100043B100232518401C80B2AB720228F3D34C
:10A52000217070BD0123F5E76068084940888A887A
:10A53000C01C10448880022004E000F009F80620C6
:10A5400000E00720207070BDD0360020D829002000
:10A550000A4909484988026801EB810307492839FB
:10A5600001EB83014B6803604A6082880A81022202
:10A570008280002008747047D8290020D03600203F
:10A580002DE9F043064680883288DFF85C8185B08B
:10A590000746502A37D010DC5449554B06F10A05BE
:10A5A000A1EB03014FEAD1014FF0020303EB014499
:10A5B000352A3AD0362A07D168E0522A02D0542AE6
:10A5C000F9D102E000F0DAFE82E01422494968463F
:10A5D000FCF74CFFADF80270384600F047FCADF8D0
:10A5E000040000F0ABF90022444698F80410384605
:10A5F000FEF786F80022E1783846FEF781F86846D3
:10A60000FFF7CEFB64E0307B012861D1B07A0128EE
:10A610005ED13089A0F52451023959D10121384643
:10A6200000F000FF07F058FA52E098F80610FEF725
:10A630004FF800284CD0002298F806103846FEF754
:10A640005FF8F288B2F5857F17D012B120462AA1B3
:10A650000BE02A88012A03D0204636A102F0D2FA64
:10A660006A88012A04D0204641A102F0CBFA04E016
:10A67000A98800223846A1DF08B1002125E0012287
:10A6800098F807103846FEF73BF821E04FF0000934
:10A6900098F80710FEF71CF8D0B1002298F80710C0
:10A6A0003846FEF72DF8F28812B1204612A104E0D8
:10A6B000AA88012A04D020462DA102F0A3FA03E0C3
:10A6C000A87900B1012081464946384606F034FF9A
:10A6D0000022364998F80200FDF794FF05B0BDE866
:10A6E000F04306F075B9000098280020D03E030022
:10A6F000C83E0300A4220300556E6578706563743C
:10A7000065642047415454207374617475732077D5
:10A7100068696C652067657474696E67204341528F
:10A7200020636861722076616C75653A2030782507
:10A73000780000004D756C7469706C652028256484
:10A7400029204341522063686172616374657269B4
:10A75000737469637320666F756E642C20757369FA
:10A760006E67207468652066697273742E0000003D
:10A77000556E65787065637465642043415220634B
:10A78000686172616374657269737469632076616C
:10A790006C7565206C656E67746820282564292CAB
:10A7A0002073746F726520302E000000897E0200D5
:10A7B00070B504460078002814D1608800F0DEFDF2
:10A7C0006588284600F07CF928B107480122C17845
:10A7D0002846FDF795FF6088FEF7FAFCBDE870405B
:10A7E00007F07AB970BD00009828002070B5204CA1
:10A7F00000252570FDF760FF6070FDF75DFFA0701C
:10A80000FDF75AFFE070FDF757FF2071FDF754FF89
:10A810006071FDF751FFA071FDF74EFFE0716278A6
:10A820000121182A18D0A278182A15D0E278182AFF
:10A8300012D02279182A0FD06279182A0CD0A27966
:10A84000182A09D0182807D004F10C000560BFF3BE
:10A850005F8F2170002070BD0648074A801AC0082B
:10A8600001EB0040054902F0C9F9032070BD00006A
:10A8700098280020D03E0300C83E0300842803002F
:10A880007CB504460078082837D1607A58BB207A16
:10A890001C4E4FF6FF75012811D0072802D008285A
:10A8A0002BD121E0A08800F02BFA0446A84224D046
:10A8B000012100F0B7FD2046FEF78AFC1DE0A088CC
:10A8C0006A46012103F0C6FE68B90198007850B1CC
:10A8D000A08800F015FAA8420FD00122F178FDF708
:10A8E0000FFF06F075F808E0F068012805D1BFF306
:10A8F0005F8F044900200C310860BDE87C4007F000
:10A90000EBB800009828002010B50B48FFF749F875
:10A91000094A083AD2E90434C018D2E9063244F1AF
:10A920000001C31A71EB020204D24FF0807280184A
:10A9300041F1000110BD0000882900201CB5054A26
:10A94000D2E90212CDE900120022694604F048F86B
:10A950001CBD0000BC22030003484FF6FF7181803C
:10A960000121017000207047A82800202DE9FC413A
:10A97000804600F07BFA002403250127A0F57F41E3
:10A980002646FF3908D06A46082103F063FE18B94D
:10A990000198841D8688056832462B46214640462C
:10A9A000B1DF042804D0082804D00B2808D002E026
:10A9B000112000E00020002F00D10B20BDE8FC8119
:10A9C0000027A80701D50125E6E7344303D000247A
:10A9D00026460325E0E7064806494246401AC008D5
:10A9E000012101EB0040044902F00CF9E5E7000009
:10A9F000D83E0300C83E03004C2B03002DE9FC4168
:10AA0000804600F033FAA0F57F410646FF390ED0AC
:10AA100001252A466D1C0027ADB26B460821304641
:10AA200003F062FE040006D0072C33D033E043F27B
:10AA30000200BDE8FC81019903230A1D0B6040461A
:10AA4000891DB2DF040004D00C2C09D0052C09D0DC
:10AA500009E032460821104603F0BEFE04461AE023
:10AA6000012700E000240821304603F0ABFE70B15E
:10AA700002F078FD0346094809493246401AC008E9
:10AA8000012101EB0040074902F0C3F80324002F25
:10AA9000BFD100E00C242046CBE70000D83E0300E5
:10AAA000C83E0300CC2A030004488088A0F57F41FB
:10AAB000FF3901D005F096BF70470000A82800209C
:10AAC0000EB502A9019100F0D1F96A46012103F007
:10AAD000C1FD08B100200EBD019800780EBD000038
:10AAE0002DE9F04107464FF6FF761048B3DF78B105
:10AAF00002F038FD02460E480E49401AC0080121F6
:10AB000001EB00400C4902F07DF80320BDE8F08124
:10AB1000064C43F20305A41E324661883846AFDF77
:10AB2000A842F3D16088401C6080F5E7AA28002085
:10AB3000D83E0300C83E0300802A0300428800EB91
:10AB400082020C328A4201D9022070478188A1F525
:10AB50007F42FF3A06D0018821B18068401C01D0B5
:10AB60000020704701207047884204D20068401CD2
:10AB700001D0012070470020704700000EB5054845
:10AB80000090054801900548029069460448FEF788
:10AB900033F80EBDB5E00200690C03003828002030
:10ABA000802A00203EB5027802230C46B3EB520FF8
:10ABB00017D1B0F80110ADF80010C1788DF802106F
:10ABC0008188ADF8041080798DF8060002AA01A9E9
:10ABD0002046FCF7C9FF032202A96846FCF772FC75
:10ABE00008B100203EBD01203EBD000070B50D46FD
:10ABF0000446142810D2FDF79FFD68B1084904EB04
:10AC0000840001EB4000D0F802102960C188A980BF
:10AC1000007AA871002070BD43F2020070BD0000F0
:10AC2000BC31002070B5018890B0102961D1011DA0
:10AC30002C226846FCF71AFC9DF804004FF6FF76BC
:10AC400003213446B1EB500F2BD003F087FE9DF863
:10AC500004006D4640080ED001280CD0022820D1F7
:10AC600018E00D99281D1131FCF736FF18B100BF0F
:10AC7000BDF82C4015E00CAA0BA9072003F042FEFA
:10AC80000028EED10DE00D99281D491CFFF78AFF21
:10AC90000028EDD10CAA0BA9072003F033FE0028F1
:10ACA000F1D1BDF80000B44200EB8001124820F859
:10ACB000114000EB41000199C0F80210BDF80810E6
:10ACC000C1809DF80A10017213D0BDF80000ADF8E4
:10ACD0002E000020ADF83040084E8DF82C000BAD52
:10ACE000044600BF56F8241028468847641C022CEE
:10ACF000F8D310B070BD0000BC310020D02203009A
:10AD00002DE9F0414FF6FF760546B04213D00B4FC8
:10AD1000002400BF04EB840037F81000A84206D1DD
:10AD20002046FDF709FD10B12046BDE8F081641C06
:10AD3000A4B2142CEED33046F7E70000BC3100205B
:10AD40003EB50C46054603F009FE0BE0BDF80000D9
:10AD5000A04207D02846029900F00EF810B1BDF8C5
:10AD600000003EBD01AA6946072003F0CBFD002884
:10AD7000ECD14FF6FF703EBD2DE9F0410C46054683
:10AD800000F1110701F111061022491C401CFCF7CB
:10AD900099FB48B9681C00F023FA28B1601C00F048
:10ADA0001FFA08B1012400E0002431463846FCF7C0
:10ADB00093FE3B780222B2EB530F0CD00321B1EB90
:10ADC000530F08D03378B2EB530F04D0B1EB530FCD
:10ADD00001D0012100E00021084201D18C4302D0C2
:10ADE0000120BDE8F0810020FBE7018811B942187D
:10ADF00092780AB101207047491C0829F7D3002036
:10AE0000704710B50C460346FFF7EFFF00280AD045
:10AE100018882188884205D10822A11C981CFCF7BB
:10AE200051FB08B1002010BD012010BD142804D230
:10AE3000024A00EB800022F810107047BC3100205D
:10AE400070B50546FFF75CFF0446284603F006FC94
:10AE5000002808D1142C06D2034B04EB84024FF6D1
:10AE6000FF7123F8121070BDBC31002010B50446EC
:10AE7000142808D2FDF760FC28B1044904EB8400D3
:10AE800031F8100010BD4FF6FF7010BDBC3100202E
:10AE90003EB5044603F062FD0EE0019920464631BE
:10AEA000FFF7AFFF28B9019920462A31FFF7A9FF24
:10AEB00010B1BDF808003EBD6A4602A9072003F0A4
:10AEC00021FD0028E9D14FF6FF703EBD10B50A49BB
:10AED00041600A4800F057FD58B902F0A3FA07494B
:10AEE0001C238C22087404488C39001F006800F071
:10AEF000B0FC002010BD0000B42403007C3700200B
:10AF00002DE9F0412D4F002520B17D604FF4064022
:10AF1000BDE8F0810879012258B1294E01280CD0F2
:10AF2000264C4FF002080834022820D0032841D1D3
:10AF300027E00A7103F0E6F93AE0002000EB800117
:10AF400016F82110022908D0401C80B20228F5D33F
:10AF50003A707D6041F61D50DAE700EB800006F89C
:10AF6000205006EB8000406803F0BEF920E00D7130
:10AF7000A4F80480002301221248216801F0FAF8A5
:10AF800016E00D71206803F0AFF90D4923682831F0
:10AF9000498801EB810206EB8201D1F804C0C4F8B4
:10AFA00000C04B60A3880B81A4F8048006F82250EF
:10AFB0000028ADD07D6048F20D60A9E7D0290020BF
:10AFC000A83600206C2A00200146034802888A42E5
:10AFD00000D0002070470000F83000202DE9FC5F11
:10AFE0000E008346DDE90C47C6F100009846924604
:10AFF000814600D40846012503E000BF90FBFAF02B
:10B000006D1C5045FADAA84500D9454624B1002EFA
:10B0100001DB780700D5641EB80702D5B8F1000F30
:10B020000AD0F80708D13CB1A54205D220215846E4
:10B03000641EFEF7A9F8F6E7002E02DA4E462D212F
:10B0400002E0780703D52B215846FEF79DF807F05C
:10B05000030002280BD1B8F1000F08D13CB1A54282
:10B0600005D230215846641EFEF78EF8F6E7CDE98A
:10B070000047434652463146584606F0D3FCBDE8E9
:10B08000FC9F000070B50D46044600684FF48871BF
:10B0900002F08EFA4FF49071206802F089FA4FF4B2
:10B0A0009271206802F084FA4FF4A271206802F0D5
:10B0B0007FFA4FF4AC71206802F07AFA20681249E6
:10B0C000C0F804132068690740F30730090E002810
:10B0D00004DB00F1E02080F8001405E000F00F0030
:10B0E00000F1E02080F8141D206840F307300028AC
:10B0F00009DB00F01F02012191404009800000F1AE
:10B10000E020C0F8001170BD10034200024600208C
:10B110001268530713D502F00300012802D0022859
:10B120000CD105E0C2F383100B68801C184404E0C6
:10B130000223086803EB9252104408600120704714
:10B140000248007A002800D0012070477C37002098
:10B15000F0B58488A518944200D82246A41AC28863
:10B16000D6189A4200D81346D21A4B880788BB4299
:10B170000CD34088834209D88888A04206D3A842CD
:10B1800004D8C888904201D3B04201D90020F0BD54
:10B190000120F0BD10B509892AB1D088491C81422F
:10B1A00018D1002010BD90F8C62202EB8204C4EB37
:10B1B000821200EB420212899142F2D0491C19809E
:10B1C00090F8C61201EB8102C2EB811100EB410045
:10B1D000008902E01980D088401E5880012010BDEF
:10B1E0000021425C0AB101207047491C1029F8D3A4
:10B1F00000207047800701D0002070470120704771
:10B200000A4810B5807860B1002401E0022C06D015
:10B210002046FDF7B9FD641C042CF7D310BD0324B0
:10B22000F6E7BDE81040FDF7D3BD00006828002018
:10B230001721018041800021017141711B21817121
:10B24000C17170472DE9FE4F2E4F984692460D0072
:10B25000814601D000260DE0684600F0B7FA6A4644
:10B260000021484603F052F93878009E10B99DF845
:10B27000090098B152463146484606F02BF804467C
:10B28000014600224846FFF70BF80D2C37D008DCAA
:10B29000A4B3082C33D00B2C09D130E00520BDE835
:10B2A000FE8F112C1ED0A4F54050023827D0204626
:10B2B00002F058F90246144814494B46401AC00897
:10B2C000012101EB0040124901F0A3FC5FF00305EE
:10B2D000B8F1000F04D0324621464846FEF700FD83
:10B2E0002846DCE72A46F9784846FDF709FA52462F
:10B2F000B9784846FDF704FA0025E9E7FFE7254657
:10B30000E6E7000040290020203F0300C83E03007C
:10B310002836030070B50E460C49154604460978D8
:10B32000FDF7D6F900280FD0204603F095F8002845
:10B330002A463146204603D0BDE8704003F092B85B
:10B34000BDE87040FEF72CBC70BD0000382900201D
:10B3500070B5094D0646A978FDF7BAF90446E978B3
:10B360003046FDF7B5F9014622463046BDE870404B
:10B370000123FFF767BF000040290020F0B585B02A
:10B380000546002714216846FCF789F8A5F57F409B
:10B39000ADF80250FF3825D02846FFF7E7FA040041
:10B3A00022D01B481B49401AC6080B2C22D0112C56
:10B3B0001ED0A4F5405002380ED0204602F0D2F83C
:10B3C0000246012000EB06402B46134901F021FC08
:10B3D0002146284605F0B4FA10483A4681782846B6
:10B3E000FDF78EF905B0F0BD0E208DF800000BE0E2
:10B3F0000127F1E70F208DF80000022000EB064046
:10B400002A46074901F0FEFB6846FEF7C9FCE3E760
:10B41000D03E0300C83E03005429030098280020B2
:10B42000A82903000A4602494978FDF769B90000D6
:10B43000982800202DE9F041002786B080463E463E
:10B44000FFF7DCFA040022D0112C22D01B481C4943
:10B45000401AC508862C1ED0A4F5405002380ED0E4
:10B46000204602F07FF80246012000EB05404346EB
:10B4700014A101F0CEFB2146404605F061FA3946A1
:10B480004046FFF7CFFF06B03046BDE8F081012609
:10B49000F5E70127F3E714221A496846FBF7E6FFB0
:10B4A0000220ADF8028000EB0540424616A101F0F3
:10B4B000A9FB6846FEF774FCE1E70000D03E0300FC
:10B4C000C83E03006773636D5F6C6F63616C5F649C
:10B4D000625F63616368655F757064617465282984
:10B4E0002072657475726E656420257320666F72B4
:10B4F00020636F6E6E5F68616E646C653A202564D0
:10B50000000000007C220300466C617368206675B1
:10B510006C6C2E20436F756C64206E6F7420737496
:10B520006F7265206461746120666F7220636F6E54
:10B530006E5F68616E646C653A20256400000000EF
:10B540002DE9FF410026244800F01AFA2248001F86
:10B55000074600F015FA214C2149A06800900D68BB
:10B5600000E000986946284004EB80000C30FFF7AB
:10B57000CDFD0028F5D101AA009901EA050304EBED
:10B580008303491CDB6842F82030401C00910228EC
:10B59000F2D3019800F0030001280BD0022810D14B
:10B5A0000198032101EB90500099BDF80A6001EB6E
:10B5B000900005E00198BDF80A60C0F383100844CC
:10B5C0000090384600F0D9F908B10098A06004B0A6
:10B5D0003046BDE8F0810000B43C00209C380020DB
:10B5E000102A002001F07EFC05F024FC05F0B4FCDC
:10B5F00005F0A0FB034C20780028FCD00E2005F0BD
:10B600006BFBF8E76428002070B5144682880E466C
:10B6100005462088111D0144921C994201D8FE2A3A
:10B6200001D90C2070BD521C32542088FF21401CCF
:10B6300080B2208031542088401C80B22080811943
:10B64000288806F0DAF92188084480B22080AA8888
:10B6500042B1A96841B13044FBF708FF2088A988AE
:10B6600008442080002070BD072070BD2DE9F04700
:10B67000C5881E1DB6FBF5F78946B6FBF5F10446F5
:10B6800005FB176C407916686843DDF820A0F718B1
:10B69000001F874200D9C61A166001E02468491EBF
:10B6A0000029FBD1A5EB0C078846B74216D818E055
:10B6B00004EB0C00001D09EB0803BAF1000F3A4639
:10B6C00002D00146184600E01946FBF7CFFE246879
:10B6D000F61B4FF0000CB844B54201D9374600E0E4
:10B6E0002F46002EE4D1BDE8F087000030B50246B9
:10B6F00051B101F001FB0021074C08E034F8213082
:10B700001568AB4202D11160002030BD491C814256
:10B71000F4D3052030BD000000000000BFF35F8FB0
:10B7200000F016B9F8B50F46017814460546012910
:10B7300001D1687830B12088821C9A4232D8012920
:10B7400002D006E00720F8BD69780144891C9942BF
:10B7500028D8181A801E86B2ADF800602188B81C5F
:10B76000084469467DDF0028EDD12978022904D0FC
:10B770006878BDF80020904205D3BDF80000B042C3
:10B7800001D809200AE00820012905D16978B142D1
:10B7900002D8ADF8001001E0ADF80060BDF800106F
:10B7A000FE2901D90C20F8BD2288491CB9542188F2
:10B7B000491C89B2218078542088401C2080BDF823
:10B7C0000010084420800020F8BD0000034A00213A
:10B7D0009268C0E900218160704700004029002084
:10B7E00070B586B00D460646144614216846FBF730
:10B7F00056FE8DF80050ADF802402046FFF736FBAC
:10B80000ADF80400142269463046FBF72FFE06B05F
:10B8100070BD70B54FF6FF750E46A84201D10020ED
:10B8200000E0401C84B208E02146304600F090F869
:10B8300008B1204670BD641CA4B2FF2CF4D9284680
:10B8400070BD10B5FBF731FD08B1002010BD11200F
:10B8500010BD10B531B1B2FBF3F403FB14241CB1DD
:10B86000092010BD0E2010BD0160002141608160E3
:10B870008281C381084610BD70B50C460546FBF7B2
:10B88000C9FC002802D021882868084470BD10B582
:10B890000A8849888A4203D1FBF7FEFC012010BDCB
:10B8A000002010BD70B50C460546FBF7D8FC0028FB
:10B8B00002D061882868084470BD10B50A8849889C
:10B8C0008A4203D1FBF7C2FC012010BD002010BD4D
:10B8D00001F01F0301229A40D243490900EB810085
:10B8E000114600F059B80A4601F01F0301219940A2
:10B8F00010B552090C4600EB820000F05DF82040C4
:10B9000000D0012010BD2DE9F04180460D460024F5
:10B91000481E012101EB501716E058F82400C043DF
:10B9200090FAA0F0B0FA80F020280CD200EB441678
:10B93000AE4208D231464046FFF7D5FF0028ECD191
:10B940003046BDE8F081641CA742E6D82846F8E7F7
:10B950004A0950F8220001F01F02012191400840DD
:10B9600000D00120704701F01F0301229A404909CD
:10B9700000EB8100114600F029B8002100F017B853
:10B98000012100F023B8012100F016B808B56A467D
:10B99000FBF7D7FC009808BD08B56A46FBF7B7FC73
:10B9A000009808BD08B56A46FBF7CBFC08BD08B592
:10B9B0006A46FBF7ACFC08BD08B56A46FBF79AFC83
:10B9C00008BD08B56A46FBF789FC08BD08B56A469C
:10B9D000FBF790FC009808BD08B56A46FBF7BEFC73
:10B9E000009808BD38B5044600258DF8005068461B
:10B9F000FCF796F921686268086890420ED9401EEB
:10BA000008600178238AE26801FB0325227A216815
:10BA1000101AC0B20A79824200D208719DF8000063
:10BA2000FCF7A2F9284638BD38B5054600208DF848
:10BA300000000C466846FCF773F9E868298A201A6A
:10BA4000B0FBF1F12A681068431C136001709DF887
:10BA50000000FCF789F938BD10B530B1017A4268B1
:10BA60000368891AC9B21A6006E00E2010BD036887
:10BA70001A68541C1C601170491EC9B2F7D20068C4
:10BA800000210171084610BDC20800F00703012023
:10BA9000895C98400840704710B560B1016117217A
:10BAA00020F8021B20F8021B1B2100F8021BFFF7E5
:10BAB000BFFB002010BD0E2010BD0000F0B5858832
:10BAC00093B00C46002D39D1018800263F4F242920
:10BAD0003BD006DC102909D011290CD0232958D1DC
:10BAE0004FE03A290BD0552953D129E00146204691
:10BAF00002F0C8F94DE0A01DFFF79AFB49E022468D
:10BB0000408934F8061F814200D808466080172813
:10BB100000D217206080106970B1607960B1D7E9F8
:10BB20000001CDE90301ADF80E506088ADF81000BA
:10BB3000136903A9104698476671267113B0F0BDCA
:10BB40000146204602F060FA23E0011D2C2206A8DF
:10BB5000FBF78CFCBDF81800BDF81C2004EBC001FD
:10BB60004A732269AAB1D7E90423CDE90423ADF8C9
:10BB70001200487B8DF814002269204604A99047E2
:10BB800007E0017A207B884200D201462846FDF773
:10BB9000CDFCA07A0028D1D0E1882846A5DF012578
:10BBA00080B11128CAD001F0DDFC024608480949DD
:10BBB00013B0401AC00805EB0040BDE8F04006A1F4
:10BBC00001F020B8A672E572B8E70000D8220300A1
:10BBD000E83E0300C83E030073645F626C655F6704
:10BBE000617474635F65786368616E67655F6D74C7
:10BBF000755F726571756573742829207265747537
:10BC0000726E65642025732E000000002DE9F0415E
:10BC10000F4604004FF000050DD004F039F9394605
:10BC20002046FDF7C7FB218881421ED10020054632
:10BC30004FF6FF7609E00E20BDE8F081626832F829
:10BC40001020B24206D1401C80B28142F6D8206951
:10BC500001F026F9002021880BE0626832F81020FC
:10BC6000B24204D1616821F810702846E4E7401C14
:10BC700080B28142F1D80420DEE700002DE9F047D0
:10BC800091460D4604004FF0000742D0EDB304F09A
:10BC9000FFF849462046FDF78DFB2978062902D298
:10BCA0002188814202D10720BDE8F087A16800EB1E
:10BCB000800601EB860001F070F930B14946284654
:10BCC00004F012FB08B13846EEE72978DFF8488027
:10BCD00058F821202AB12069B8B129469047002898
:10BCE000E2D1A068294600EB860001F075F9070053
:10BCF00006D0297858F8210010B1686801F0B3F82F
:10BD0000A068494600EB860000E002E003F066FF11
:10BD1000D9E70E20C8E70000F0220300F8B50500BF
:10BD20000C4620D0002C1ED02888112806D0A0F167
:10BD300030011F2902D950381F2814D8AE88204658
:10BD40003146FDF737FBADF80000218881420AD06B
:10BD50002988112908D0A16800EB800001EB800040
:10BD6000314603F03BFFF8BD62684FF6FF7122F8E1
:10BD700010106946E06801F02FF9F8BD20B1027893
:10BD8000DE2A03D0082070470E2070474180002033
:10BD9000704760B159B10278DE2A0AD00968416063
:10BDA000DE2101704FF6FF714180002070470E20A8
:10BDB0007047082070477FB5054600294DD0002DFB
:10BDC0004BD008780C46DE2847D1A8886188884285
:10BDD00002D1204605F0DEFE2888012825D0022861
:10BDE0003BD011283AD0512837D135F8040F61885B
:10BDF000884232D1A978A81C02292ED1017A0429BF
:10BE000003D0062901D0052927D100210091022263
:10BE10008DF8002001914FF4C07202910391ADF8AA
:10BE20000420007A05280FD010E0297A2046012945
:10BE300013D1A988428891420FD10121017204B027
:10BE4000BDE8704005F0A6BEADF80410288869462C
:10BE5000B0DF002801D0616888477FBDA88861886D
:10BE60008842FAD14FF6FF7060807FBD00F18040BC
:10BE70000068002800D00120704708B500F180401C
:10BE8000002101600068009008BD000070B50D4CF5
:10BE90000125207808B185260EE00020A0606060B2
:10BEA0002061E060084801F0A7FB064601F0BAFAFD
:10BEB00008B901F08BFB257001F080FB00B1A57083
:10BEC000304670BDA03400208193020038B50025B3
:10BED0008DF800506846FBF723FF084CE068401ED1
:10BEE000E060E06828B901F069FB10B901F094FB4B
:10BEF000A5709DF80000FBF737FF38BDA034002087
:10BF0000F0B505460478154889B0164640F8242057
:10BF1000124A08690832A2F10C0742F82400487F4F
:10BF2000385520226846FBF7A1FA04942878385C3B
:10BF300048B10EB10A4A00E000226946281D01F00E
:10BF4000E7FD09B0F0BD0EB1064A00E000226946E7
:10BF500005F10C0001F0A6FCF3E700005C290020CD
:10BF6000B9180300011703000FB408B5039900299D
:10BF700004D004AA00926A4600F00FF801B05DF800
:10BF800014FB10B582680446002A05D0D4E90403E6
:10BF9000216898470020A06010BD2DE9FC4791461C
:10BFA0000C00804676D014F8011B39B125290ED03B
:10BFB0004046FDF7E9F820780028F4D198F80C0005
:10BFC000002867D04046BDE8FC47FFF7DABF0020F5
:10BFD000012221782B291BD02D2902D0302908D10C
:10BFE00002E040F0010001E040F00200641C002A81
:10BFF000EFD100252A290ED02178A1F130020A2A9A
:10C0000011D205EB850201EB4205641C303DF1E7DE
:10C0100040F00400EAE7D9F800100B1DC9F8003021
:10C020000968641C0D44217800232E290BD114F8D3
:10C03000011FA1F130020A2A05D203EB830201EBB2
:10C040004203303BF3E76C290DD068290BD06929F6
:10C0500021D00BDC252918D0582931D063290ED0E6
:10C06000642915D117E014F8011FECE7702969D095
:10C07000732932D075291BD0782909D120E0D9F84D
:10C080000000011DC9F8001001784046FDF77CF85A
:10C09000641C90E76CE0D9F800100A1DC9F8002074
:10C0A0000968CDE900500A224046FEF797FFEFE706
:10C0B000D9F800100A1DC9F8002009680A2206E014
:10C0C000D9F800100A1DC9F8002009681022CDE92E
:10C0D0000050404605F0A6FCDAE7D9F8001000272A
:10C0E0000A1DC9F800200E68C00705D112E04046BD
:10C0F000761C7F1CFDF748F831780029F7D104E061
:10C10000202140466D1EFDF73FF8BD42C0D9002DED
:10C11000F6D1BDE74EB13046FBF7CCF9074604E057
:10C12000202140466D1EFDF72FF8BD4206D9002D97
:10C13000F6D103E04046761CFDF726F83178002959
:10C14000F8D1A5E7D9F80000011DC9F8001005686D
:10C1500030214046FDF718F878214046FDF714F8E5
:10C1600008200021CDE90001034610222946B0E74E
:10C17000BDE8FC872DE9F843884605002C482D4989
:10C180009946A0EB01004FEAD0004FF0010116469E
:10C1900001EB004424D0286800282CD0002E34D095
:10C1A000696840464FF010070A68511E11EA080FEF
:10C1B00011D1014672432846FBF7A7FC00282ED078
:10C1C00028684B463246046901B041462846A446D9
:10C1D000BDE8F04360472046174B18A2009722E0C5
:10C1E0000E2000902046144B1EA220A100F019FD45
:10C1F0000E20BDE8F8830820009020460E4B26A2B2
:10C200001AA100F00EFD0820F3E709200090204657
:10C21000094B24A215A100F004FD0920E9E7064B13
:10C22000214A2046009711A100F0FBFC1020E0E716
:10C23000703F0300C83E03009B24030061646472E6
:10C240005F69735F706167655F616C69676E656484
:10C2500028705F66732C20706167655F616464722B
:10C2600029000000705F66730000000025732063E2
:10C270006865636B206661696C656420696E202562
:10C2800073282920776974682076616C7565203081
:10C290007825782E00000000705F66732D3E705F79
:10C2A000617069006C656E00EC36030038B5030000
:10C2B0001148124D4FF00E04A0EB05004FEAD000DC
:10C2C0004FF0010505EB004009D061B119600C6821
:10C2D00001B0A446BDE83040114618466047084BFF
:10C2E00008A2009402E0064B08A2009409A100F005
:10C2F00098FC0E2038BD0000703F0300C83E0300CC
:10C3000050240300705F667300000000705F61706E
:10C3100069000000257320636865636B20666169AE
:10C320006C656420696E20257328292077697468FC
:10C330002076616C756520307825782E000000002D
:10C34000044801214174007A08B10020704701209F
:10C35000704700007C370020012801D0032808D155
:10C360000449002201284A7400D00020087403F018
:10C3700013BD70477C37002070B50246022801D0FB
:10C38000032A45D1234C207A002841D0012833D0FC
:10C39000022831D120480023022A006802D0032A53
:10C3A0002AD11BE0E360017911B1012924D10DE00C
:10C3B000D0E90565711B4FF48056B14200D3314678
:10C3C000294481614569A9420ED015E00169491CE3
:10C3D0000161426991420FD1237213E0E168491C67
:10C3E000E160082908D9E3602372022A0AD00D21EE
:10C3F000FDF74CFC03F0E8FB607C28B1BDE8704021
:10C4000001F016B80021F3E7BDE8704003F0C4BCAA
:10C4100070BD00007C370020E02900202DE9F84F96
:10C4200090468A463A493B4A0500A1EB02014FEA91
:10C43000D1014FF00102DDF828901E464FF00E00AA
:10C4400002EB01441AD0B8F1000F1CD02868002874
:10C4500022D00920002E29D069684968B6FBF1F284
:10C4600001FB1261002926D000902B4B20462BA205
:10C4700035A100F0D6FB0920BDE8F88F00902046DA
:10C48000254B3CA203E00090234B20463BA22EA16B
:10C4900000F0C7FB0E20EFE70820009020461E4B5F
:10C4A00038A229A100F0BDFB0820E5E70090204656
:10C4B000194B37A2DCE75046FBF721FB102798B158
:10C4C0004046FBF71CFBA0B1324651462846FBF71D
:10C4D0001CFB98B1CDF80090286833464246C468EA
:10C4E00051462846A047C7E720460B4B29A2009794
:10C4F00008E02046084B2DA2009703E0064B20469B
:10C5000033A2009710A100F08CFB1020B4E70000CC
:10C51000703F0300C83E03008824030021286C6597
:10C520006E202520705F66732D3E705F666C6173B0
:10C53000685F696E666F2D3E70726F6772616D5FC6
:10C54000756E697429000000257320636865636B4C
:10C55000206661696C656420696E20257328292036
:10C56000776974682076616C756520307825782E3F
:10C5700000000000705F667300000000705F73725F
:10C5800063000000705F66732D3E705F617069002C
:10C590006C656E00616464725F69735F616C69678A
:10C5A0006E65643332286465737429006164647253
:10C5B0005F69735F616C69676E65643332282875E3
:10C5C000696E7433325F7429705F7372632900007F
:10C5D000616464725F69735F77697468696E5F62D2
:10C5E0006F756E647328705F66732C206465737456
:10C5F0002C206C656E2900002DE9FF411C46DDE909
:10C600000A7815460E46684600F0B8F846EA450135
:10C6100041EA840141EA072242EA0841009A00EB1C
:10C620008200C0F80017BDE8FF812DE9FF411C46DC
:10C63000DDE90A7815460E46684600F0ADF846EA90
:10C64000450141EA840141EA072242EA0841009A91
:10C6500000EB8200C0F80017BDE8FF812DE9FF4123
:10C660001C46DDE90A7815460E46684600F0A2F839
:10C6700046EA450141EA840141EA072242EA0841CB
:10C68000009A00EB8200C0F80017BDE8FF811CB5DE
:10C69000002100910B4601220191FFF7C6FF1CBD4E
:10C6A0001CB5002100910B4601220191FFF7D6FF36
:10C6B0001CBD1CB500220B46009211460192FFF7EB
:10C6C000B4FF1CBD1CB500220B460092114601921E
:10C6D000FFF7C4FF1CBD1CB5002100910B460122D1
:10C6E00001911146FFF7A1FF1CBD1CB5002100916F
:10C6F0000B46012201911146FFF7B0FF1CBD13B597
:10C700000C46684600F03AF8009900EB8101D1F838
:10C71000002722F44032C1F80027009900EB810085
:10C72000D0F8001741EA0441C0F800171CBD000012
:10C730003CB50A4CD4E90034CDE900346B464418CA
:10C7400008E000BF53F82010D1F8205520C2C1F8EE
:10C750002055401C8442F5D83CBD0000F023030066
:10C760000168202902D24FF0A040704701F01F015C
:10C770000160014870470000000300500168202953
:10C7800002D24FF0A040704701F01F010160014844
:10C7900070470000000300500168202902D24FF0CA
:10C7A000A040704701F01F01016001487047000080
:10C7B000000300500168202902D24FF0A0407047CA
:10C7C00001F01F01016001487047000000030050A4
:10C7D00042094FF0000102D0012A05D102E04FF0DA
:10C7E000FF3101E04FF6FF7100F01F00012282408F
:10C7F0000A4201D0012070470020704701B5684609
:10C80000FFF7BCFFD0F810050099C84000F0010008
:10C8100008BD01B56846FFF7BFFF009A01219140AE
:10C82000C0F8081508BD01B56846FFF7C3FF009AB8
:10C8300001219140C0F8081508BD38B501240090C9
:10C84000684631B1FFF78CFF00998C40C0F808456D
:10C8500038BDFFF785FF00998C40C0F80C4538BD06
:10C86000034908B50844002101600068009008BD34
:10C870000060004002494058012800D00020704765
:10C8800000600040F0B595B01C4615460F460846BE
:10C890001A9E00F001FB182109A8FAF700FE0E9677
:10C8A000CDE909540023082203A9384600F009FB0A
:10C8B00005980690BDF81000ADF81C00BDF81200F8
:10C8C000ADF81E0000208DF821000398082600F026
:10C8D0000300012802D0022818D032E00398334622
:10C8E000850AC0F3C2008DF8200003980FA9C0F399
:10C8F0008314A200384600F0E4FA09A8009006ABC1
:10C9000022460FA9284600F023FA1AE00398840D66
:10C91000C0F3C2008DF82000082C01D2254600E0AB
:10C92000082533462A460FA9384600F0CAFA2E4495
:10C93000641B09AB06AA29460FA800F085F9002C54
:10C94000EAD1384600F0AEFA15B0F0BD70470000ED
:10C95000084810B50178084A515C19B1001D01F072
:10C9600071F902E00C3001F06BF8BDE810400020D6
:10C9700004F0E4BEF42900205829002008B5034A39
:10C9800000924023024AFFF77DFF08BD9109030092
:10C990009C3700200A4A012902EBC00007D0022977
:10C9A00007D0032907D0042907D0002070470220B0
:10C9B0007047042070470079704740797047000045
:10C9C000C83E03002DE9F04F8DB0FCF7F5FB18B120
:10C9D00000200DB0BDE8F08F7E4C4FF0000BC4F886
:10C9E00018B4BFF34F8F7C49A06802900D68D846F9
:10C9F000284004EB80000BE0D4F8180470B961689B
:10CA00000298814201D8A160E2E7284004EB80004F
:10CA10000C3002A9FEF77AFB0028EDD1002005AA10
:10CA2000029901EA050304EB8303491CDB6842F821
:10CA30002030401C02910228F2D3059800F0030038
:10CA4000022802D001284DD0AAE005985022810D7D
:10CA50008946B2EB905F00D850210E4666F39F5096
:10CA6000059008315D4800F0CEF9070078D000F05D
:10CA700013FA4346082205A9384600F02AFA02991B
:10CA800008F1080A2940681A8000001D864222D950
:10CA9000504D0C3530B1C2B204EB8101301A9046D2
:10CAA0000C3104E02946F2B2002590462846C6B271
:10CAB0005346384600F00DFA0AEB080325B132461A
:10CAC0002946384600F005FA029909F1030001EB06
:10CAD000900002903BE004EB810153463246384619
