:020000022000DC
:1070000000000420757302005D7302005F730200CC
:1070100061730200637302006573020000000000E8
:107020000000000000000000000000006773020084
:1070300069730200000000006B7302006D730200B0
:10704000A9AC02006F73020049B102006F73020025
:107050006F7302006F730200C9AF02006F7302000A
:107060006F7302006F7302006F7302006F73020090
:107070006F7302006F7302006F7302006F73020080
:107080006F730200D98602006F7302006F730200F3
:107090006F7302006F7302003D1603006F730200EE
:1070A0006F7302006F7302006F7302006F73020050
:1070B0006F7302006F730200000000000000000008
:1070C0006F7302006F7302006F7302006F73020030
:1070D0006F7302006F7302006F7302006F73020020
:1070E0006F7302006F7302006F73020000000000F4
:1070F000000000006F730200000000006F730200C8
:10710000000000000000000000000000000000007F
:10711000000000000000000000000000000000006F
:10712000000000000000000000000000000000005F
:10713000000000000000000000000000000000004F
:10714000000000000000000000000000000000003F
:10715000000000000000000000000000000000002F
:10716000000000000000000000000000000000001F
:10717000000000000000000000000000000000000F
:1071800000000000000000000000000000000000FF
:1071900000000000000000000000000000000000EF
:1071A00000000000000000000000000000000000DF
:1071B00000000000000000000000000000000000CF
:1071C00000000000000000000000000000000000BF
:1071D00000000000000000000000000000000000AF
:1071E000000000000000000000000000000000009F
:1071F000000000000000000000000000000000008F
:10720000354936480A1A02D0072291438D4634493F
:1072100034480A1A06D00722914381F309880222D2
:1072200082F3148830483149314A00F044F831483B
:107230003149324A00F03FF831483249324A00F0D1
:107240003AF832483249334A00F035F83248334987
:10725000334A00F030F833483349344A00F02BF811
:1072600033483449344A00F026F83448344900227F
:1072700000F02CF833483449002200F027F8334856
:107280003349091A082902DB002202604160314AB1
:1072900090471F481F49884205D00268043003B454
:1072A000904703BCF7E700208646EC46002000210B
:1072B000294A9047FEE7884207D0521A05D0037842
:1072C00001300B700131013AF9D17047884202D088
:1072D00002700130FAE770470000042000E003204C
:1072E00000000420000004209C43030074220020BE
:1072F000B4280020D0730200D0730200EC1B0300FE
:107300009C4303007422002074220020B41D03005B
:10731000B41D0300B41D0300B41D0300B41D03001D
:10732000B41D0300B41D0300B41D03009C430300FF
:10733000DC490300B4280020B4280020B428002031
:10734000043D0020043D0020043D0020043D0020B9
:10735000045D00209D730200EDC20200FEE7FEE71F
:10736000FEE7FEE7FEE7FEE7FEE7FEE7FEE7FEE7F5
:1073700000F002B8FFF7FCBF0F484FF00701884349
:1073800085460E4880470E48016841F4700101604F
:10739000BFF34F8FBFF36F8FFFF732BF09480A4922
:1073A0000A4A884207D0521A05D0037801300B7080
:1073B0000131013AF9D1704700000420C5A602004E
:1073C00088ED00E0A01D0300602200207422002050
:1073D000F0B595B01C46164608460D4602F0B8FFBB
:1073E0001A9B0D93CDE9086400242346082205A9C1
:1073F00028460A948DF82C400C9402F0C6FF079B97
:107400000293069B03939DF814308DF8114003F00E
:107410000302012A1DD1BDF81440059EC3F3C20327
:10742000C4F383148DF81030A20008230EA9284657
:1074300002F0ABFFC6F3952608AB0093224602ABE1
:107440000EA9304600F0C0FB284602F085FF15B0BB
:10745000F0BD022AF8D1BDF81640C3F3C203A40957
:107460008DF810300827082C264628BF08263B46F2
:1074700032460EA9284602F088FFA41B08AB02AAD8
:1074800031460EA8374400F003FC002CEBD1DBE7BB
:10749000014B01221A707047F52800207047000048
:1074A00070B50E4D06460FCD88B06C460FC495E8FA
:1074B0000F00002E84E80F004FF00603084A094829
:1074C000009308BF0022694603F076FB08B100F084
:1074D000A5FD054B1E7008B070BD00BFB41D0300B4
:1074E0009174020074220020B428002007B5044BD8
:1074F0000093044A4023FFF76BFF03B05DF804FBE1
:1075000009750200B528002038B50D4B0D4D00203F
:1075100018700D4804782D5DD2B21C4665B1043058
:1075200004F0C0FA08B100F079FD084B1A7812B1E6
:107530002378002BFBD038BD0C3004F053F8F1E772
:10754000F52800208031002074220020B42800207B
:1075500008B50848084A0378D35C3BB1043004F00E
:107560001FFA0020BDE80840FFF79ABF0C3003F077
:10757000DDFFF6E774220020803100200120FFF7B4
:107580008FBF000008B5FFF7F9FF0421034800F0A2
:107590008BFA034B01225A7108BD00BF901D0300F6
:1075A00088220020037813F0040216D003F00303AE
:1075B000012B03D0022B09D0012070470A680088F4
:1075C0000232C0F3831002440A60F5E70B68428878
:1075D000023303EB92130B60EEE710467047000096
:1075E0002DE9F04F87B000230446851C0DF10700FC
:1075F0000E4690468DF8073000F004FF404A506870
:107600003060936803F580731B1A924602F21C46A1
:1076100002F5836902F21447AB4219D30023B8F193
:10762000000F66D0052262F3070364F38913DAF8CA
:1076300004209DF80700D1B2033115444AF82130E7
:10764000CAF8045000F002FF012007B0BDE8F08F37
:107650000121304602F0FEF8484602F014F938469F
:1076600002F011F9DAF808000290C0B203300AEB18
:10767000800002A9FFF796FF029B30BBDAB20AEB4B
:107680008202D16803919A1C0133DBB20AEB8303B7
:107690000292D3F80CB001F00303012B21D0022B8E
:1076A00015D08346384602F0F1F810B1029BCAF8B3
:1076B00008305946304602F0CDF8DAF80830DAF8EA
:1076C000042003F580739B1AA6E7D8B2CEE7BDF875
:1076D0000E309B0903334FEA1B4B02EB93030293DB
:1076E000E0E7BDF80C30C3F383134FEA1B4B1344A0
:1076F000F5E7062262F3070364F39F5397E700BFA1
:10770000C8290020064B074810B500221A7002F065
:10771000D8FD044610B9044802F03AFF204610BDD7
:10772000C8290020381C0300F41D030030B50A4CA2
:1077300071B10A4A0A49121BD20800239A4201D1A8
:10774000002030BD31F82350854202D00133F5E7E7
:10775000034654F83300F4E7601C0300381D0300AF
:1077600074220020094B013903EBC000032909D81A
:10777000DFE801F00A020406042070470079704730
:10778000407970470020704702207047601C03005A
:10779000034BD3E90130C31A58425841704700BF28
:1077A000C82900202DE9F04186B0FFF7F1FF05461A
:1077B000002840F0E680744CC4F81804BFF34F8FE3
:1077C000A0680290C0B2033004EB800002A9FFF76A
:1077D000E9FE029B18B1D4F81824002A53D0DAB27B
:1077E000991C013304EB8202DBB204EB8303D26801
:1077F000DB68049302F00303022B039202914FD142
:10780000BDF80E3061484FEA93184746502F28BF05
:10781000502767F38F1307F10801ADF80E3002F01F
:1078200068FD0546002800F0978002F091FD03A94D
:1078300000230822284602F09EFD0299CE43F6B2AC
:107840000136B600C9B20331B74204EB810124D935
:1078500008233246BF1B284602F08DFDFFB24C497B
:1078600006F108033A46284602F085FD029B08F11E
:10787000030803EB98030293D4F81834002B43D188
:10788000D4F8106453E062689A4204D8A260284693
:1078900006B0BDE8F081D8B295E708233A46E2E7A2
:1078A000012B59D1BDF80C303848C3F38311062998
:1078B00028BF062161F3891302318900ADF80C302D
:1078C00002F017FD0546002846D002F041FD0023D6
:1078D000082203A9284602F04EFD0026BDF80C2020
:1078E000C2F38312B300964203F10803C4D2029993
:1078F0004A1CC9B20331029204EB810104222846DA
:1079000002F039FD0136E9E7284602F025FDFFF7D0
:107910003FFF80F00100C5B2B9E7F3685B7923B19E
:10792000336829461B6830469847F3681E68002E66
:10793000F3D1284602F010FD0DF107008DF8076025
:1079400000F060FDD4F818340BB9029BA3609DF8D9
:10795000070000F07BFDDAE7D4F8104454B90D4B72
:107960000D480E49C01AC008000440F0020000F0A3
:1079700069F8CCE7236820469B689847E3681C6851
:10798000ECE7002583E700BFC8290020381C03006E
:10799000D4290020601C0300881C0300001E030083
:1079A0002DE9F34780460F46924601A90122184669
:1079B0009946FFF715FE214D70B3019C0026A11CCE
:1079C0004E4506EB010230D100211D4801F001FFB8
:1079D00080F31000631CDBB205EB8303000440EA74
:1079E0001840D860E3B2033315F8232068F3C502CA
:1079F00005F8232035F8232066F3891225F8232083
:107A000055F8232067F39F2245F8232002F0F8025F
:107A100042F0010205F823202B781BB1FFF7C2FECC
:107A20000028FBD102B0BDE8F087D2B205EB82029C
:107A30005AF82630D3600136C2E700BFC8290020BB
:107A4000E42D002000231A46FFF7AABF07B5012343
:107A5000019201AAFFF7A4FF03B05DF804FB07B58C
:107A6000CDE9002302236A46FFF79AFF03B05DF8D1
:107A700004FB1FB5CDE90123069B039301AA032351
:107A8000FFF78EFF05B05DF804FB1FB5CDE90023BD
:107A9000069B0293079B03936A460423FFF780FF2C
:107AA00005B05DF804FB000030B50F49D1F8102493
:107AB000002314463CB9C468237152B9C1F81004BC
:107AC0002260184630BDE46825799D4206D02468BE
:107AD000F0E7D268116821601060F2E701330A2BE9
:107AE000E7D14FF0FF33ECE7C8290020084A38B54A
:107AF0000123D2F8104413701D4604B938BDE36861
:107B00005D71236820465B689847E3681C68F4E76A
:107B1000C8290020037A052B10B50C460FD0437AF4
:107B200023B1084A0849204601F013FF07492046BF
:107B300001F00FFF2046BDE8104001F0FFBE002A13
:107B4000F8D0F3E74B1E0300173703006D1E030048
:107B5000C38873B504460D4633B1144A00921449E4
:107B6000144A284601F0F5FE217A05291CD0637AD3
:107B70004BB1A088FFF7F6FD0F4B104953F82020BA
:107B8000284601F0E6FE227A0D4BA08853F82260C9
:107B90000021FFF7CBFD0B4903463246284602B0D1
:107BA000BDE8704001F0D5BE02B070BD4B1E0300B1
:107BB000581E0300501E0300181E03001737030051
:107BC0007C1E0300701E03002DE9F04385B01F46A4
:107BD0000C9D002306460C46904695F80C902B739E
:107BE00029463846FFF7B4FFB8F1060F09D8DFE899
:107BF00008F00412181F283340003146284601F0CF
:107C0000A8FE002229463846FFF784FF85F80C902D
:107C100005B0BDE8F08322683146284601F099FEA0
:107C2000EFE7D4E900233146284601F092FEE8E769
:107C3000A36800933146D4E90023284601F089FE69
:107C4000DFE7E3680193A36800933146D4E900239A
:107C5000284601F07EFED4E723690293E36801938E
:107C6000A36800933146D4E90023284601F071FE51
:107C7000C7E76369039323690293E3680193A368E9
:107C800000933146D4E90023284601F062FEB8E7AC
:107C900008292DE9F84F80460E4617461C463AD86B
:107CA000002593F80C901D7319461046FFF750FFFE
:107CB000DFF884A0DFF884B0AE422ED918F8052092
:107CC0005946204601F045FE0135082DF4D11849EA
:107CD000DFF86CB0204601F03CFE4FF0000A56453C
:107CE00020D918F80A507E2D03D8284609F0B2FE94
:107CF00000B92E252A465946204601F02AFE0AF1EF
:107D0000010ABAF1080FEAD1012221463846FFF7ED
:107D100001FF84F80C90BDE8F88F5146204601F031
:107D200018FED1E70349204601F013FEE7E700BF44
:107D3000461E0300441E0300421E03003C1E0300B7
:107D4000481E0300C30710B507D4F0234008054AB6
:107D5000145C23401943115410BD0901C9B20F230B
:107D6000F4E700BFB02E002030B5094B1C78094B5A
:107D7000196800239C4202DC0022104630BD11F835
:107D80003350854201EBC302F7D00133F2E700BF65
:107D9000802E0020D02E002070B504460D46FFF73F
:107DA000E3FF30B1436823B129462046BDE8704067
:107DB000184770BD034B044819680022490800F0B9
:107DC00032BA00BF842E0020882E002010B5C0B229
:107DD000FFF7CAFF0446007803F0E8F863785A1EFC
:107DE00053425341834208D1044BD3E90023134348
:107DF00003D1BDE81040FFF7DDBF10BDA82E002065
:107E000037B54308364AD35CC2074CBF1B0903F0A1
:107E10000F0304460D46042B36D8DFE803F0032693
:107E20002D393D0081B30121FFF78CFF00230DF1B7
:107E300007008DF8073000F0E5FA0122A4F12003D5
:107E4000C4F12000274902FA03F322FA00F00343A9
:107E500002FA04F4D1E9002014430343C1E90043CA
:107E60009DF8070000F0F2FA0EE0002918BF022189
:107E70002046FFF767FF07E041B10321FFF762FFEC
:107E800001212046FFF788FF03B030BD0121EFE755
:107E90000029F9D10421EBE709B10321E8E7FFF755
:107EA00051FF29462046FFF777FF0DF107008DF8B7
:107EB000075000F0A7FA0122A4F12003C4F120002A
:107EC000084902FA03F322FA00F0034302FA04F429
:107ED000D1E9002022EA040420EA0303BEE700BF40
:107EE000B02E0020A82E00202DE9F041124E134F95
:107EF00000243378A34208DC114BD3E90023134359
:107F000018D0BDE8F041FFF755BF3D6805EBC40848
:107F100015F8340003F04AF898F801104B1E594246
:107F200059410A1A514215F834005141FFF768FFD0
:107F30000134DEE7BDE8F081802E0020D02E002045
:107F4000A82E0020092AF7B505460C4616463DD94D
:107F500002F05CFFD8B11E4B1E481D601E4B1F4F28
:107F60001C701F4B002120221E6009F0DCFD1D4B00
:107F700000200021C3E90001013CE4B20326FF2CEC
:107F80000BD1194A1948002100F042F903E002F030
:107F900003FF0028DFD003B0F0BD20B29DF806300B
:107FA0008DF8046005EBC00223F007038DF806305E
:107FB00001A9937815F830008DF805303A4602F0A3
:107FC0002FFF013CE4B20028D9D0E4E70720E2E724
:107FD000D02E0020B02E0020802E0020CD7D02006B
:107FE000842E0020A82E0020E97E0200DC1E030063
:107FF00070B5084D084E00242B789C4201D3002018
:1080000070BD3368012113F8340002F085FF01349C
:10801000F2E700BF802E0020D02E00201FB50021E7
:10802000039001AA44F20100CDE9011100F004F827
:1080300005B05DF804FB000010B572B6FFF756FD01
:10804000FFF7B0FB0028FBD1104B114C1149E41A8B
:10805000E408240444F00100FFF7F4FC0E4B1B6815
:10806000DB0700D500BE0D4944F00200FFF7EAFC33
:10807000BFF34F8F0A490B4BCA6802F4E062134307
:10808000CB60BFF34F8F00BFFDE700BF601C030054
:10809000881C0300EB1E0300F0ED00E0F71E030058
:1080A00000ED00E00400FA05D0E90223D1E9020165
:1080B000994208BF90422CBF012000207047000069
:1080C0002DE900480C4800F0F0FA0C4BD3E90023EE
:1080D00012EB000B43F1000C094BD3E900239C4544
:1080E00008BF93455846614603D21BF180704CF19E
:1080F0000001BDE8008800BF90220020D82E00209B
:10810000502F002037B505460C460A4801A901F05A
:1081100094FA60B10570446001A9064801F0B7FA0D
:1081200018B1054800F0C6FA002003B030BD0420A5
:10813000FBE700BF3C2F002090220020194B1B784A
:108140002DE9304804461BB900252846BDE8308893
:108150000028F9D0037F03F0FF05002BF4D0FFF7D0
:10816000AFFFD4E90223994208BF904215D3236997
:1081700003B92377D4E90530984721690029E3D072
:10818000237F03F0FF05002BDED0D4E9022312EB9E
:10819000010B43F1000CC4E902BC2146024802F085
:1081A00016FAD2E7E02E0020081F030013B5114B8A
:1081B00011491868019008235822104801F008FA64
:1081C000044698B90E4A0F4801A900F063F9044625
:1081D00060B901210B4800F04BFA01230A4A094813
:1081E000194600F0B1F9094B01221A70204602B07D
:1081F00010BD00BF041F0300E42E00203C2F002010
:108200007182020090220020FFFF7F00E02E0020FC
:108210003AB103685A614A1E514251411961002026
:1082200070470720704738B5037F04460D4683B971
:108230008261FFF745FF421941F10003C4E90223BF
:10824000236903B1256121460020BDE83840FFF7CE
:1082500059BF002038BD0023014603770120FFF7F6
:1082600051BF0000014800F020BA00BF902200205A
:108270002DE9F04F85B0074600F002FA40B1594AA7
:10828000D2E9003113F1807341F10001C2E90031FC
:108290000021384600F003FA38B1534C236823B16B
:1082A0002068FFF74BFF002323600121384600F0D0
:1082B000F6F920B1FFF704FF4C4BC3E9000103A915
:1082C0004B48494D4B4C4C4E01F0F1F9002845D13B
:1082D000DFF820A1444CDFF828B1504602F08DF9B8
:1082E0002368002875D07BB12368D0E90201D3E967
:1082F0000223994208BF90422DD223681B7F1BB1F5
:108300002168504602F063F9504602F070F9D0E956
:10831000026305460193FFF7D3FE019BB6EB00080D
:1083200063EB0109B8F1010F79F1000344DB334E2F
:10833000B0453FD9FFF796FF82194FF4960300210D
:10834000584600F021F900283ED1236813B9384679
:1083500000F0F2F8256005B0BDE8F08F0378012B3E
:108360001DD05BB1022B11D14FF0000A204602F064
:108370003EF9002833D080F81CA0F7E741680B7F56
:1083800023B901230B77204602F021F903A91848ED
:1083900001F0B8F903A9164801F089F996E7416898
:1083A0002B68994202D100232B60EFE7204602F0B0
:1083B00027F9EBE7AA68C0E70021584600F065F905
:1083C0002846FFF7BBFE01E00D28F9D0002323600B
:1083D00083E7002BBFD1384600F0B2F8BBE701239A
:1083E0003370D3E7D82E0020582F0020502F0020C4
:1083F0003C2F0020081F0300E02E0020FFFFB400E8
:108400009022002070B5EFF3108672B60C4A946883
:1084100001239CB993600B4B0B4DD3F8801029407E
:108420001160C3F88050D3F8841051604FF0FF32D0
:10843000C3F88420047006B962B670BD0370FAE711
:108440005C2F002000E100E0FC06FFBD084B9A68AD
:1084500010B55AB150B9EFF3108172B6054A1C68D5
:1084600014605C685460986001B962B610BD00BFCA
:108470005C2F002000E100E0435882B03BB10023B4
:10848000435043580193019B012002B070471846A6
:10849000FBE70000F8B5204B4479204E43F8242038
:1084A0001F4A204B06EBC4049B1A2279DB081B04ED
:1084B00032B143F002001C49FFF7C4FA0820F8BDAE
:1084C00002680C88C2F8084590F904508A78002D9B
:1084D0004FEA4212ECB2D2B219DB14494F1987F8B5
:1084E000002301226D0904F01F0402FA04F441F88C
:1084F0002540427906EBC20101240C7146F8320096
:108500000B4943F00300FFF79DFA0020D7E704F082
:108510000F0408490A55ECE7702F0020682F00204F
:10852000601C0300981C0300261F030000E100E00C
:10853000481F030014ED00E0036801221A60704731
:10854000036801225A60704773B501F15005AD0010
:108550000068ADB24FF480348C400026C0F8084368
:10856000C0F84843465101F5A8714559019522F0DC
:108570007F42019D40F82120C0F844430BB1C0F870
:10858000044302B070BD00002DE9F74F88469946BC
:108590004FF48036036808F150058E404FEA880A90
:1085A000AD00C3F84863ADB2C3F80863074603EBF8
:1085B0000A00D3F804154FF0000B22F07F44D0F8E6
:1085C0004025C0F8401543F805B05B590093009B67
:1085D000531A23F07F43012B0BD1244B4FF48060BF
:1085E00043F0010398473B6843F805B05B5901939A
:1085F000019B3868D0F80455C0F84463631B23F02E
:108600007F43012B1AD108F5A878184B013440F8A4
:10861000284043F001034FF4806098473B68D3F84B
:1086200004359D4208D13B680020C3F84463C3F879
:10863000046303B0BDE8F08F0D20FAE78244C9F16E
:10864000FF19CAF84045D0F80435E21A013A22F081
:108650007F4209F57F499145EED3002AE3D10134E9
:10866000CAF84045D0F804259342DBE7201F0300F9
:1086700003680222C3F8442309B1C3F804237047F6
:108680004FF482710068FFF7F7BE4FF4803303FAAE
:1086900001F10368C3F84813C3F808137047503159
:1086A000890089B20068FFF7E7BE0368D3F80405C4
:1086B0007047000090F90430002B09DB5A090121B2
:1086C00003F01F0301FA03F34032024941F822305C
:1086D000704700BF00E100E0024B034A1B681068CE
:1086E000184700BF702F0020682F002070B5064D7E
:1086F0000646002455F8043B0BB130469847013438
:10870000042CF7D170BD00BF802F0020033080B251
:1087100040F2FE33984230B51FD8134B1A783AB95D
:108720001C895D892C440444A4B2B4F5806F0AD935
:108730001A7DAAB99A8BDC8B2244024492B2B2F51C
:10874000806F0DD801220A801446142202FB0433E4
:108750005A8910445881002030BD48F20860FBE778
:1087600048F20660F8E700BFB42F00200B4A0C4B1C
:108770005188142000FB0131CB6833B904204968CB
:1087800010700122074801F067BB052306491370EA
:1087900002238B80012200230968F3E7982F002031
:1087A000B42F0020602200207C30002007B5002379
:1087B00005490093054A09680548082301F0B6FAFF
:1087C00003B05DF804FB00BF7C300020681F03008D
:1087D0006022002007B50023009301460823034AC6
:1087E000034801F0A3FA03B05DF804FB601F030027
:1087F0006022002013B500230C4600930146042399
:10880000074A084801F092FA38B9074B142202FBD4
:1088100004340123237402B010BD48F20D60FAE75E
:108820005C1F030060220020B42F002037B50A48E7
:108830000A4B42689C8819685388032503330570E6
:108840009BB2002000909B0001EB8401044801F0E2
:108850006DFA03B030BD00BF982F00207C3000209F
:108860006022002010B50146044800F0E6FE1C22FC
:108870000446002109F057F9204610BD6830002059
:1088800068B10268084B9A4209D14068074B984288
:1088900007D0013398420CBF01200320704703200A
:1088A00070470020704700BFDEC0ADDEFE011EF144
:1088B0004388033300EB830399420BD382884FF63E
:1088C000FF739A4208D0038833B18068431C584232
:1088D0005841704702207047012070472DE9F84346
:1088E0000223DFF860800B800D46174600F58056A6
:1088F00000F108044FF00109B4420FD2236801339C
:108900000CD031462046FFF7D3FF48B10FB187F8AE
:10891000009002280BD14FF480632B80BDE8F883D0
:10892000A368D8F80020934201D9C8F800302B88FA
:108930006288033313442B806388033304EB83047E
:10894000DAE700BFAC2F0020154A142303FB0020F8
:1089500070B50B6844680D4604F58056ABB15C8871
:10896000033403EB8404B4420DD2236801330AD0EC
:1089700031462046FFF79CFF01280BD010F0FF0F77
:1089800005D00228EFD1002003E00834EBE72C608B
:10899000012070BD6388033304EB8304E3E700BF69
:1089A000B42F0020436873B504460D466BB3244AC8
:1089B000D1688B4229D31269934226D813F0030061
:1089C00023D1204A2189128991421ED121689A68B7
:1089D00091421AD11C4A51688B4203D901F580514A
:1089E0008B420DD3926993420CD902F58052934287
:1089F00008D201232B80B0FA80F0400902B070BD8C
:108A00000346F7E748F20960F5E700232B801E468E
:108A1000019601A92888FFF797FF30B92B88013309
:108A20009BB2012B2B80F3D9E8E7019B2268996860
:108A30009142EED16360034B1B892381DEE700BFC7
:108A400060220020982F0020B42F00202DE9F84349
:108A50001C461D4B1B7806460F46154673B382B362
:108A60007CB3DFF86C804FF01409A388012B02D986
:108A700048F2096020E009FB03F318F803302BB932
:108A80002146A088FFF760FF20B92060A38801334A
:108A9000A380EAE723681EB1998832889142EFD11A
:108AA0001FB119883A889142EAD19A68C5E9002332
:108AB000064B1B892B810020BDE8F88348F201603A
:108AC000FAE748F20460F7E7902F0020982F002083
:108AD000B42F002008B5074B191D5888FFF734FF45
:108AE00018B1BDE80840FFF7A1BEBDE80840FFF798
:108AF0003DBE00BF982F00202DE9F04FA34FDFF8B7
:108B0000B09289B00646B8463B6823B94946A048AA
:108B100000F0CDFD3860D8F8005029784B1E052BA9
:108B200000F2FE80DFE813F0060060006000F20053
:108B3000F20064012EB1974B00225A604FF40644B4
:108B4000F0E02B79032B1DD8DFE803F015022B365C
:108B500091490B78022B08461AD00B7D022B4FF05F
:108B6000010317D114225343C2180020C85450687F
:108B7000FFF730FE03E001232B71FFF717FE0028FB
:108B800000F0BE80834B00225A6048F20D64C9E0B9
:108B90000023E7E77F4A13700023536041F61D541A
:108BA000C0E07E497E48002302222B718A80012288
:108BB000096801F051F9E2E7784C00262E7120682F
:108BC000754DFFF707FE774BD4F800C05A88142381
:108BD0005343EA18EE5451682160A188C2F804C0DA
:108BE00011810222A280CAE7B5F814A0AA7DDFF89D
:108BF000A8B1AEB1022AEB8806D9142101FB0AB153
:108C0000DA1C088902440A81142202FB0ABAC3F55D
:108C10007F43BAF80A20FD331344AAF80A308DE7DF
:108C2000142303FB0AB318895C6804EB8004062A4A
:108C300069D8DFE802F0274E36441D5A040041F699
:108C40001D54AA7DEB88022A06D9142101FB0AB122
:108C5000DA1C088902440A81142202FB0ABAC3F50D
:108C60007F43BAF80A20FD331344AAF80A3059E0CA
:108C70004D484E4900234360AB690360FFF792FE05
:108C8000002874D00223AB75002300930423EA1854
:108C90002146434801F04AF8002831D048F20D64DB
:108CA000CFE72B69002B14BF03230123AB750023EF
:108CB000009305F10C02042304F10801E9E7012304
:108CC000AB750022EB8800929B002A6904F10C012D
:108CD000DFE703290CBF05230623AB7500230093B0
:108CE000042305F10802E118D3E70623AB752F4BE7
:108CF00019882D4B5868FFF77DFD04460028A0D148
:108D000009B0BDE8F08F48F20E649AE7002E7FF4B8
:108D100015AF2B79012B4DD0EBB1022B3FF43EAFB9
:108D200048F20E641422002103A808F0FCFE41F66C
:108D30001D539C4208BF0024D8F8003004941A78D0
:108D4000023A042A00F20A81DFE812F0EB00F70091
:108D50001A012201290102232B710DF10A01EB688E
:108D6000039303A8CDE90466FFF71CFE10B948F28F
:108D70000964D7E70498BDF80A108388EB8003885C
:108D80002B81FFF737FD044629E000BFB02F0020FC
:108D900068300020902F0020B42F00207C3000206D
:108DA00060220020982F0020742F0020883000209F
:108DB000A82F0020DFF804A203AA53463146A81DBD
:108DC000FFF744FE044668B9BAF804100498FFF7A8
:108DD00011FD044648F209639C423FF4DFAE002CCB
:108DE000A0D18DE708223146504608F09CFEF1E7FD
:108DF000002E7FF4A3AE6C4B1A7BAAB11E731A78B7
:108E0000013A062A8CD801A151F822F0B78E02004F
:108E1000DD8E0200FB8E0200018F0200218D020018
:108E2000078F0200198F02001A78072AE7D801A1DC
:108E300051F822F0558E0200FF8D0200FF8D0200D6
:108E40007B8E02008F8E0200B38E0200B38E020072
:108E5000778E02001A89554901321A8100225A8000
:108E60001A730A78B2FA82F252099A720A7DB2FA39
:108E700082F25209DA72012207E04D4958688A8865
:108E80004088033202448A8002221A70B7E7474CB6
:108E90005A884749142505FB024208685468506007
:108EA0008888108102200C608880002111740622BD
:108EB000EBE70722E9E79A7A32B9DA7A8AB900222F
:108EC0001A705A805A6069E6384900229A72CA6854
:108ED000002AF2D1097C0029EFD05A80FFF7FAFD71
:108EE00051E70022DA72314A116A0029E7D192F87B
:108EF0002420002AE3D00122EFE7FFF797FC42E7A6
:108F0000FFF734FC3FE7294A5B88142101FB032368
:108F10005868FFF75FFC36E700225A60FFF746FC0F
:108F200031E701228DF80C201A89ADF818209A88B3
:108F3000DB68ADF81A20059310E002228DF80C20B2
:108F40001A89ADF818209A88ADF81A20DA689B7D46
:108F500005929A1F534253418DF81C3003A8FFF726
:108F6000C5FB002649461348C8F8006000F0CAFB5C
:108F70000121114800F079FC00287FF4C5ADBFE65F
:108F800003228DF80C20DA88ADF818201A89CFE773
:108F90000422DB888DF80C20ADF81830DEE70523BD
:108FA0008DF80C30DAE700BF982F0020B42F002096
:108FB0007C30002068300020783000208C30002089
:108FC0004068FFF799BD000008B50121044800F092
:108FD00036FC18B9BDE80840FFF78EBD08BD00BFDC
:108FE000783000202DE9F3419846374B1B78064630
:108FF0000D46002B5CD000295DD009884FF6FF7329
:1090000099425BD06B88002B58D06B689B0758D176
:109010004AB92F890DF102013846FFF777FB30B1CD
:1090200002B0BDE8F08113885788ADF8023001A87E
:10903000FFF718FC044660B9BDF80230234A14213A
:1090400001FB032358890338C01B588148F207608D
:10905000E6E700238375BDF8023083826B68036105
:1090600080F8008001211A4800F0F4FB2B8823814E
:10907000B8F1030F6B88A38004BF0423A3754FF0DE
:10908000000508BF3368E06008BFA361E780658121
:1090900001A9104800F0FBFA36B1E36833600E4BCB
:1090A00075601B89B5723381FFF78EFF0020B7E72B
:1090B00048F20160B4E748F20460B1E748F20360A7
:1090C000AEE748F20260ABE7902F0020B42F0020FB
:1090D000AC2F002068300020982F002008B5084BE6
:1090E0001A68042A09D01968064A42F821000121A9
:1090F000184600F0AFFB002008BD48F20B60FBE70C
:1091000084300020802F00202DE9F04F89B01422F8
:10911000002103A808F007FD784A137803F0FF0147
:10912000009190463BB103A8FFF7E0FA00273846CC
:1091300009B0BDE8F08F101D00F0A2FB0028F5D1AA
:1091400040F6F8734FF080521B685C1C08BF6C4BF4
:109150006C4C08BF1B6811695269581C08BF02FBA0
:1091600001F323610022A3F540536749E3602046E1
:1091700000F0A8FD019407460028D8D11C238C22BA
:1091800062496348DFF89CB100F022FABA463D46D6
:109190004FF003093C46019BDE6856443046FFF71A
:1091A0006FFB012860D042B2002A4AD0032827D1A1
:1091B0003268531C02D0574B9A4234D1321D06F507
:1091C0008051106801302ED104329142F9D1DBF880
:1091D00000203AB902220123CBF80060ABF804204A
:1091E00000930BE0142262434B4B022099189854D1
:1091F0004A4A4E60548001340881A4B245F001050A
:109200000AF5805ABAF5405FC5D1B9F1010F98BF90
:109210000025EDB2022D03D0062D44D0002D4CD1F7
:1092200048F20A6783E73C4914226243881809F12F
:10923000FF394660032088541FFA89F90134A4B22B
:10924000DEE735491420604301EB000C0A5400F1BD
:10925000100208300A44CCF8046001443046FFF79D
:109260003DFB45F00205E9E7009B6BB12A4B142258
:109270006243991802209854DBF800204A60274A7C
:10928000088154800134A4B200222549CBF8006043
:109290003046FFF723FBBBF80420022A0CBF042250
:1092A00008221543ACE7012388F8003003A8002307
:1092B000C8F80430FFF71AFA39E702A8FFF7D2FA24
:1092C000C8B10123013D03700A2D09D8DFE805F07C
:1092D00006080608070807080F110F00002303718E
:1092E00002A90B4800F0D3F9FFF76EFE1FE7032336
:1092F000F5E70223F3E748F2076718E7902F00200D
:1093000014100010602200205C210300DC2F0020DC
:1093100068300020DEC0ADDEB42F0020982F002082
:10932000803000207C30002073B50D460446C8B163
:10933000C1B10DF10601FFF735FBB0B10C4BBDF823
:1093400006006668142202FB003001210C3000F098
:1093500081FA63682E600C336B600123A3720020D6
:1093600002B070BD48F20460FAE748F20960F7E71E
:10937000B42F002013B50446A8B10DF10601FFF784
:1093800011FB98B10C4ABDF80630142101FB0323F0
:10939000DA6872B1A27A62B1DA680020013ADA6062
:1093A000A07202B010BD48F20460FAE748F209600A
:1093B000F7E748F20560F4E7B42F0020022300220B
:1093C000FFF710BE18B103230022FFF70BBE48F2CF
:1093D00004607047114B1B7813B50446ABB14FF6D0
:1093E000FF73984214D001A8FFF73CFA98B1052307
:1093F000037001230371C48001A9094800F047F9F3
:10940000FFF7E2FD002002B010BD48F20160FAE76C
:1094100048F20360F7E748F20760F4E7902F002076
:10942000683000200F4B1B7807B5A3B101A8FFF7E8
:1094300019FA98B10623037001A90B4800F027F927
:109440000A4B1A780AB101221A73FFF7BDFD0020FA
:1094500003B05DF804FB48F20160F9E748F20760E9
:10946000F6E700BF902F002068300020982F0020E2
:1094700007B5ADF80600ADF804100DF1060001A91E
:10948000FFF7E4FA03B05DF804FB07B51346ADF847
:1094900006000A4600200DF10601FFF7D7FA03B0D7
:1094A0005DF804FB07B51346ADF806000A460DF15A
:1094B00006000021FFF7CAFA03B05DF804FB20B1F3
:1094C00019B103680B600020704748F204607047D0
:1094D0002DE9F84F3C4B1B780446002B6ED000283A
:1094E0006FD012220021DFF8E4A008F01CFB032358
:1094F00023804FF0000BD04614274FF00109DAF813
:109500000410BAF80A50BAF808600846FFF7B8F92C
:10951000032808BF2388628804BF03F1FF33238038
:1095200007FB0B832E44DB681344638023891D44AF
:1095300063892581B6B233446381C6F58066A38909
:10954000B6B2B34238BFA68101F1080501F58056D5
:10955000AE4217D92B68013314D031462846FFF7A5
:10956000A7F9012819D010F0FF0F23D00228EFD15E
:10957000E38884F81090761BE589013305EBA60596
:10958000E380E5810AF1140ABBF1000F02D000204C
:10959000BDE8F88F4FF0010BB1E7E3880133E380BA
:1095A000E3896A8803331344E3816B88033305EB53
:1095B0008305CDE7A3880133A380F6E748F2016075
:1095C000E6E748F20460E3E7902F0020B42F002084
:1095D00010B561B1B2FBF3F403FB1424A4B244B997
:1095E000C0E9001484608281C381204610BD0E2032
:1095F000FCE70920FAE782B050E8022FC188B2EBFD
:10960000324F4FF0000317BF92B241EA014142EAE4
:10961000014104E04268B2EB324F08BF012340E849
:109620000212002AE8D18DF807309DF80730002B90
:109630000CBF1120002002B0704737B550E8013F41
:109640009DB2C48925448489A54228BF2D1B048965
:10965000A54202BFBFF32F8F002207E0C5EA030532
:1096600040E80154002CE9D14FF001028DF80320AD
:109670000193019B9DF803200B6002F0FF0322B1D0
:109680000B880068184403B030BD1846FBE70A8811
:109690004B889A4209D150E8012FC2EA024240E8C1
:1096A0000123002BF7D1012070470020704737B508
:1096B00050E8023F1FFAA3F5C488A54202BFBFF3DA
:1096C0002F8F00220DE0C48925448489A54228BF3C
:1096D0002D1BC3EA054540E80254002CE8D14FF0A9
:1096E00001028DF803200193019B9DF803200B607C
:1096F00002F0FF0322B14B880068184403B030BD6C
:109700001846FBE70A884B889A4209D150E8022F95
:10971000C2EA224240E80223002BF7D10120704721
:109720000020704701F01F024B090121914000EB1E
:10973000830000F063B84B0910B501F01F0401214C
:10974000A14000EB830000F04EF8E04000F0010083
:1097500010BD01F01F0301229A404B0900EB83006A
:10976000D14300F061B84B0901F01F0150F823000C
:10977000C84000F0010070472DE9F0474E1E760901
:1097800080460F460136002558F8254008EB85092C
:10979000E44394FAA4F4B4FA84F44FEA451A202C72
:1097A00006D10135AE42EFD83C462046BDE8F087F1
:1097B0005444A742F5D921464046FFF7BCFF002894
:1097C000F3D0D9F80040E44394FAA4F4B4FA84F452
:1097D000E5E750E8002F0B4640E8003C9CF0000F06
:1097E000F7D11046704750E8002F42EA010340E8E5
:1097F000003C9CF0000FF6D11046704750E8003F47
:1098000043EA010240E8002C9CF0000FF6D110461C
:10981000704750E8002F02EA010340E8003C9CF04A
:10982000000FF6D11046704750E8003F03EA0102EE
:1098300040E8002C9CF0000FF6D11046704750E82D
:10984000002F02EB010340E8003C9CF0000FF6D132
:109850001046704750E8003F03EB010240E8002C3F
:109860009CF0000FF6D11046704750E8003FA3EB84
:10987000010240E8002C9CF0000FF6D11046704722
:109880000121FFF7B0BF0121FFF7B8BF0021FFF7AB
:10989000C0BF10B590B1D0E9012301689B1ADBB2BB
:1098A0000A60013BDBB2FF2B026802D1002010717D
:1098B00010BD11684C1C14600B70F2E70E20F7E726
:1098C00037B5054600240DF107008DF80740FEF777
:1098D00099FD2A686B68116899420ED9481E10607C
:1098E00011F8014CEB68298A01FB0434AB6811794B
:1098F0001B1ADBB2994238BF13719DF80700FEF7BF
:10990000A5FD204603B030BD37B5054600230DF157
:1099100007000C468DF80730FEF774FD2A681368BF
:10992000591C1160E968641A298AB4FBF1F41C70AF
:109930009DF80700FEF78AFD03B030BD826810B5C0
:1099400004462AB143690168006998470023A3606F
:1099500010BD0EB403B5039921B104AB01AA019364
:1099600000F074F802B05DF804EB03B070470A2908
:1099700038B504460D4602D10D21FFF7F8FFA36864
:109980002268591CA160D554D4E901329A4204D30B
:109990002046BDE83840FFF7D1BF38BD2DE9F84F6C
:1099A0009946DDE90A431746824688460A4601265B
:1099B000BA420FD24E4538BF4E4613F0010B01D1CB
:1099C00064B900240125B9F1010F1AD909F1FF3951
:1099D0007D43F8E7B2FBF7F20136E9E79B070ED5C6
:1099E000B9F1000F0CBF30252025A642EAD2013C78
:1099F00029465046FFF7BBFF002CF6D1E1E72025B2
:109A0000F3E7B8FBF5F39F42E2D9DFF83C90B8FBEF
:109A1000F5F3504619F8031005FB1388FFF7A7FF6D
:109A2000B5FBF7F3BD4207D2BBF1000F02D00CB17A
:109A3000A64203D3BDE8F88F1D46E8E72021504633
:109A4000013CFFF794FFF2E7701F03002DE9F74F89
:109A5000054617468846002900F0308118F8011B9A
:109A600049B92B7B002B00F02981284603B0BDE8C3
:109A7000F04FFFF763BF252940F0C080002698F81B
:109A800000302D2B424608F1010823D0302B24D082
:109A90002B2B25D000242A2B02F1010123D13B6876
:109AA0001A1D1B683A601C440A4613782E2B26D1D7
:109AB00001324FF00009104610F8011BA1F1300CE3
:109AC000BCF1090F1DD80A2303FB0913A3F13009C8
:109AD0000246F0E746F00106D1E746F00206CEE77F
:109AE00046F00406CBE711F8013CA3F13000092849
:109AF000DBD80A2202FB0434303C0A46CBE74FF0A5
:109B0000000912F8011B01F0FB0068289046F8D00C
:109B100069290ED04AD8582964D006D825296DD095
:109B200098F80030002B99D19BE7632962D0642913
:109B3000F6D13A68D2F800A0111D8AEAEA723960BB
:109B4000A2EBEA724FF0010B092A5BDCCB4538BF70
:109B5000CB462CB1BAF1000F01DB720700D5013CF6
:109B6000B30702D5B9F1000F04D0F00702D4002CDE
:109B70004ED10024BAF1000F52DACAF1000A2D21A9
:109B80002846FFF7F4FE06F00302022A05D1B9F1D8
:109B9000000F02D1002C47D10024CDE900464B46EE
:109BA0000A2251462846FFF7F9FEB9E773294CD03F
:109BB00014D87029B4D13B681A1D3A603021284668
:109BC0001C68FFF7D4FE78212846FFF7D0FE00225C
:109BD0000823CDE9003221461022E3E775292BD076
:109BE00078299DD139680A1D3A60CDE900464B4677
:109BF000102228E03B681A1D19783A602846FFF7C2
:109C0000B6FE8DE70A230BF1010BB2FBF3F29BE7E3
:109C1000A345AFD220212846013CFFF7A8FEA6E7C6
:109C20007107B0D52B21ABE7A345B6D2302128462A
:109C3000013CFFF79CFEADE73968CDE900460A1DFF
:109C40003A604B460A220968ACE73B681A1D3A6045
:109C500016F00106D3F800A020D1BAF1000F03D00E
:109C6000504607F093FF0646B44200D9C4B90AF142
:109C7000FF3A1EE028460136FFF779FE1AF8061073
:109C80000029F7D1A642BFF44BAF002C3FF448AFF8
:109C900020212846013CFFF76AFEF3E70026EDE7A6
:109CA00020212846013CFFF762FEDDE72846FFF74A
:109CB0005EFE1AF8011F0029F8D131E703B0BDE8B4
:109CC000F08F000007B50B4688B9124B1248134AB3
:109CD000C01A0E23C0080093114B0004114940F034
:109CE0000100FDF7C6FE0E2003B05DF804FB4BB982
:109CF000084B09480C4AC01AC0080E230093000400
:109D0000074BEBE703601B68114603B05DF804EBFB
:109D1000184700BF601C0300C01C03002D20030077
:109D2000801F030032200300A92003002DE9F34126
:109D300088B93D4B3D483E4AC01AC0080E243D4BF1
:109D4000009400043C4940F00100FDF792FE2046DB
:109D500002B0BDE8F0814AB9334B3448374AC01AE3
:109D6000C0080E2400040094324BEBE7D0F800C08A
:109D7000BCF1000F09D12C4B2C48314AC01AC00845
:109D80000824000400942B4BDCE74BB9264B2748F2
:109D90002C4AC01AC008092400040094254BD1E7BE
:109DA0004768D7F80480B3FBF8F708FB17374FB1C3
:109DB0001D4B1E48244AC01AC00809240004009400
:109DC0001C4BBFE78F0709D0174B18481F4AC01A12
:109DD000C008102400040094164BB3E712F0030FE0
:109DE00009D0114B11481A4AC01AC00810240004A7
:109DF0000094104BA6E7C768B9420BD34C1E056907
:109E00001C44AC4206D8DCF80C40A44602B0BDE8C5
:109E1000F0416047044B05480E4AC01AC0081024A0
:109E200000040094034B8DE7601C0300C01C03007A
:109E30002D200300921F030032200300AF200300F7
:109E4000A320030062200300B5200300DF200300ED
:109E5000F72003001A210300F7B580B92A4B2B48DD
:109E60002B4AC01AC0080E242A4B009400042A4929
:109E700040F00100FDF7FDFD204603B0F0BDD0F835
:109E800000C0BCF1000F09D11F4B2048234AC01A63
:109E9000C0080824000400941E4BE8E74AB91A4B96
:109EA0001A481F4AC01AC008092400040094194B1C
:109EB000DDE74768D7F800E00EF1FF370F4209D021
:109EC000114B1248174AC01AC0081024000400940D
:109ED000104BCCE7C768B9420CD34C1E05690EFB8A
:109EE0000244AC4206D8DCF81040A44603B0BDE8FA
:109EF000F0406047044B05480B4AC01AC0081024C4
:109F000000040094034BB2E7601C0300C01C030074
:109F10002D200300A51F030032200300A32003000F
:109F200062200300B81F0300DE1F030029DF704713
:109F300028DF704770B503689D6886B004460E46FA
:109F40006DB114220021684607F0EDFDA36805936A
:109F5000237901962BB1012B0DD06846A84706B096
:109F600070BD01238DF8003023690293E3680393E9
:109F700063690493F1E702238DF80030E3681B0363
:109F80000293F5E70846704700207047024B187AA5
:109F9000003018BF0120704730310020034B187A81
:109FA0000122B0FA80F05A74400970473031002025
:109FB00008B510461A4607F08DFD002008BD0000C8
:109FC00008B514220021044807F0ADFD0348FFF74F
:109FD00012FB002008BD00BF3031002020310020DE
:109FE00010B5094C094B43602046FFF749FC40B9C6
:109FF00007F00AFB1C2320748C2205490548FFF753
:10A00000E7FA002010BD00BF3031002050210300CE
:10A01000943000202031002070B5244C244E237A47
:10A0200025463BB923492448FFF741FB306008B976
:10A03000606070BD346802232B72237973B1012BE9
:10A0400024D020460321FFF775FF00232B726B609D
:10A0500018491948BDE87040FFF754BBD4E90523FF
:10A06000D21AB2F5805F28BF4FF48052D4E90310B2
:10A070009208012A38BF012219441844FFF756FFFD
:10A0800050B11128DDD101232B72D2E7D4E90303AB
:10A090001844FFF74DFFF3E72B7C002BC9D1014695
:10A0A000BDE87040022000F009B800BF3031002048
:10A0B00048310020443100202031002038B5831E73
:10A0C000012B45D8234C237A002B41D0022B09D1F8
:10A0D000032830D0204B1B680022E2601A793AB185
:10A0E000012A22D0637C7BBBBDE83840FFF794BFD8
:10A0F000D3E905128D1AB5F5805F94BF521902F5A8
:10A1000080529A619142EDD102284FF0000308BFBE
:10A1100019462372104B18BF0D211868FFF70AFF6C
:10A120000E490F48FFF7EEFADCE71A6901321A61AF
:10A130005B699A42E7E7E3680133082B01D8E360E3
:10A14000D0E70023E360DFE7BDE8384007F04CBA12
:10A1500038BD00BF3031002048310020443100209C
:10A160002031002000F0FD03012B08D1044B002218
:10A170005A74421E504250411874FFF74DBF704749
:10A180003031002010B5064C201DFFF779FB28B9AF
:10A19000637C1BB9BDE81040FFF73EBF10BD00BF98
:10A1A000303100202DE9F34180460D460F4801A9CA
:10A1B00016461F46FFF741FA0446A8B11C220021AB
:10A1C00007F0B1FC2D0B0123237101A9C4F8008015
:10A1D000A760E56066610548FFF759FAFFF7D2FF0F
:10A1E000002002B0BDE8F0810420FAE72031002011
:10A1F0002DE9F74381468846104801A917461E46B7
:10A20000FFF71BFA0446B0B11C22002107F08BFCBB
:10A2100000250A9BA36001A92571C4F80090C4E938
:10A22000037866610548FFF732FAFFF7ABFF28466F
:10A2300003B0BDE8F0830420FAE700BF203100201E
:10A240002DE9F047B0F806904479D2F800A09DF8C7
:10A25000208009FB04F4043C06460AEB0300A042FC
:10A260000F4688BFA4EB030A191DC2F800A0B1FB7A
:10A27000F9F509FB15114DB9A9EB0104544528BFA7
:10A280005446BAF1000F04D1BDE8F0873668013DAD
:10A29000F1E704317B1970182246B8F1000F0ED097
:10A2A00001461846AAEB040A07F014FCD1452544E0
:10A2B00036684C464FF0000128BF5446E1E7194686
:10A2C000F0E7FFF7E6BAF8B546790146721E054693
:10A2D000002393422D6803D30024A64202D8F8BD80
:10A2E0000133F6E70F682846FFF70EFB01343946C5
:10A2F000F3E72DE9F843068ACD1C0746FFF7E0FA9D
:10A30000043E35440446B5FBF6F5F0B14FF48073D6
:10A31000EDB28380C680013D076081464FF00008A2
:10A32000A84512D23846FFF7CBFA064648B1637902
:10A330000133637108F10108C9F800000760814624
:10A34000EEE72046FFF7BFFF34462046BDE8F8831E
:10A3500001210430FFF77EBA10B501210446043014
:10A36000FFF783FA10F0FF0F04D12046BDE810403C
:10A37000FFF7A9BF10BD1FB503920022009203AAE8
:10A38000FFF75EFF05B05DF804FB1FB503920122E5
:10A39000009203AAFFF754FF05B05DF804FB41DF0C
:10A3A00070470000064B10B500241C70054B1C6064
:10A3B000BFF35F8F0449054800F0F3F8204610BD55
:10A3C00054310020583100207C2103004C31002002
:10A3D00007B500230DF107008DF80730FEF712F8DE
:10A3E000F1EE103A23F09F03E1EE103ABFF35F8FD6
:10A3F000094B4022C3F884219DF80700FEF726F898
:10A4000007F002F920B1FFF7CAFF03B05DF804FBC3
:10A4100020BF40BF20BFF8E700E100E002681368FA
:10A420005268934291BFD01A80680130801888BF6B
:10A43000C01A7047036881681A685B688B4234BF32
:10A4400001330023D31A584258417047F7B500230F
:10A4500004460DF107000D468DF80730FDF7D2FFD9
:10A460002046FFF7E7FF10B1237C002B3CD1226888
:10A47000A66853685168B14234BF01310021516070
:10A4800030B11168A068814234BF013100211160F0
:10A49000E2686068511E072920D8DFE801F0041047
:10A4A0001F141F1F1F182A78C2542046FFF7B6FF3B
:10A4B00023689A68824200D29860002415E02A88B6
:10A4C00020F81320F1E72A6840F82320EDE7D5E9CA
:10A4D000006700EBC300C0E90067E6E7294602FB1E
:10A4E000030007F0F7FAE0E704249DF80700FDF702
:10A4F000ADFF204603B0F0BD036818685B68C31A5F
:10A5000058425841704773B5002305460DF10700C6
:10A510000C4616468DF80730FDF774FF2846FFF706
:10A52000EBFF002832D129680B682EB90A68A868A9
:10A53000824238BF561C0E60EA686968501E0728C0
:10A540001ED8DFE800F0040E1D121D1D1D16CB5C89
:10A55000237000249DF80700FDF778FF204602B025
:10A5600070BD31F813302380F3E751F823302360B6
:10A57000EFE701EBC301D1E90023C4E90023E8E7D9
:10A5800003FB0211204607F0A5FAE2E70524E1E704
:10A59000836800225A609A60C3E90422DA601A6074
:10A5A00070470B684A684360934208BF002301600C
:10A5B00008BF43607047436843B1026891685268BE
:10A5C0000B449342436004BF00234360704770B55F
:10A5D000446806460D46206818B1B3682946984776
:10A5E00018B923682B60256070BD2468F3E74368C1
:10A5F000186808B102681A607047436818687047A5
:10A600004368186800B97047884203D102681A602D
:10A610000120704703460068F4E7000010B50D49BB
:10A62000A1F59472914201D800200FE08B1ADB1043
:10A6300003EBD3735B1002EBC30452F83330834255
:10A6400005D802D204F10802ECE7606810BD21468B
:10A65000E8E700BFD822030008B5FFF7DFFF024B91
:10A66000002808BF184608BD9A2103000A4B1B6842
:10A670005A1C05BF094B0A4A0A4A10680ABF1B78D0
:10A680001068C0F30310082B04D103288CBF0020EE
:10A69000012070470020704730010010E00F00F0EB
:10A6A000E80F00F034010010054B1868043B1B68EC
:10A6B000082B06BFB0FA80F040090020704700BFA9
:10A6C0003401001008B5FFF7D1FF40B14FF08043CF
:10A6D0000022C3F80C21C3F81021C3F83825FFF776
:10A6E000C5FF002846D04FF080525E4BD2F80414CC
:10A6F000C3F82015D2F80814C3F82415D2F80C14A6
:10A70000C3F82815D2F81014C3F82C15D2F8141475
:10A71000C3F83015D2F81814C3F83415D2F81C1445
:10A72000C3F84015D2F82014C3F84415D2F8241405
:10A73000C3F84815D2F82814C3F84C15D2F82C14D5
:10A74000C3F85015D2F83014C3F85415D2F83414A5
:10A75000C3F86015D2F83814C3F86415D2F83C1465
:10A76000C3F86815D2F84014C3F86C15D2F8442425
:10A77000C3F87025FFF798FF10B13B4B3B4A1A60B6
:10A78000FFF792FF18B13A4BFB22C3F81825FFF7E9
:10A790008BFF48B13749384B0A681B6822F00F021B
:10A7A00003F00F0313430B60FFF77EFF18B1334B29
:10A7B0004FF400721A60FFF759FF48B14FF0804321
:10A7C000D3F80024D20744BF6FF00102C3F800247D
:10A7D0002B4AD2F8883043F47003C2F88830BFF3B4
:10A7E0004F8FBFF36F8F4FF01023D3F80022002A52
:10A7F00003DBD3F80432002B2FDA224B0122C3F8FB
:10A800000425D3F80024002AFBD04FF01022122197
:10A81000C2F80012D3F80024002AFBD04FF0102316
:10A820001222C3F80422174B1A46D3F80014002949
:10A83000FBD00021C3F80415D2F80034002BFBD064
:10A84000BFF34F8F0E49104BCA6802F4E062134306
:10A85000CB60BFF34F8F00BFFDE70C4B0C4A1A6073
:10A8600008BD00BF00C000408C5600404881030076
:10A8700000F00040E40E00405802001040960240F4
:10A8800000ED00E000E001400400FA0598220020FD
:10A890000090D003074B1B5C1F2B8ABF064A4FF06A
:10A8A000A04203F01F03D2F80405D840C04300F0D3
:10A8B000010070479626030000030050074B1B5C05
:10A8C0001F2B86BF03F01F0305494FF0A041012253
:10A8D00002FA03F3C1F80C35704700BF9626030057
:10A8E00000030050074B1B5C1F2B86BF03F01F03A8
:10A8F00005494FF0A041012202FA03F3C1F80835DF
:10A90000704700BF962603000003005008B50020E2
:10A91000FFF7E8FF0120FFF7E5FF0220FFF7E2FF66
:10A920000320BDE80840FFF7DDBF08B50020FFF7B2
:10A93000C5FF0120FFF7C2FF0220FFF7BFFF032082
:10A94000BDE80840FFF7BABF0A4B185C1F288ABF52
:10A95000094B4FF0A04300F01F00D3F8042501215C
:10A96000814021EA02000A40C3F80805C3F80C251B
:10A97000704700BF9626030000030050074B1B5C86
:10A980001F2B8ABF064A4FF0A04203F01F03D2F8E4
:10A990001005D840C04300F0010070479226030024
:10A9A000000300500B2809D00C2809D0182809D022
:10A9B00019280CBF03204FF0FF307047002070476C
:10A9C0000120704702207047014B185C704700BFA0
:10A9D00092260300C20710B504460CD54FF0A043E1
:10A9E0000322C3F83427C3F83827C3F83C27C3F839
:10A9F0004027FFF78BFFA3070AD54FF0A0430C2297
:10AA0000C3F82C27C3F83027C3F86027C3F864279E
:10AA100010BD000038B5074C051E04F1080318BF2F
:10AA20001C4623682BB11A6822605B682846984749
:10AA3000F7E738BD6431002020B9054B01225A7078
:10AA4000FFF7E8BF012802D1014A9070F8E770478C
:10AA50005C31002020B9034B01225A70FFF7DABFA6
:10AA6000704700BF5C31002038B50E4C2378B3B975
:10AA70000D486360A3602361E36000F0E3F80546DE
:10AA800006F0C2FD08B900F0E9F801232370074B76
:10AA9000D3F800340BB10123A370284638BD8525B7
:10AAA000F5E700BF5C31002039AA02000000014038
:10AAB00037B50D4C00230DF107008DF80730FDF779
:10AAC000A1FCE368013BE360E36833B9074BD3F8CB
:10AAD000005415B900F0D4F8A5709DF80700FDF7F3
:10AAE000B5FC03B030BD00BF5C3100200000014068
:10AAF000012813B50DD018B1032820D002B010BD25
:10AB0000114B0122C3F88020BFF34F8FBFF36F8F2B
:10AB1000F4E70E4C00230DF107008DF80730FDF728
:10AB200071FC23780BB9FFF79FFFE3689DF80700DE
:10AB30000133E3600123A370FDF788FCDEE700F03A
:10AB40008DF8FFF7B5FFD9E700E100E05C310020A8
:10AB50001FB503788DF800304368019383688DF842
:10AB60000830C3680393054A054B684653F8213003
:10AB700052F82110984705B05DF804FB70310020B1
:10AB8000783100201FB503788DF8003043680193B9
:10AB900083688DF80830C3680393054A054B6846FF
:10ABA00053F8213052F82110984705B05DF804FBA6
:10ABB0007031002078310020F0B5184B0778DFF8AD
:10ABC0006CE043F82720164B16460A6943F8272005
:10ABD0004B7F0EF807300C4684460FCC89B06D468B
:10ABE0000FC594E80F0085E80F001EF807300497A2
:10ABF00053B1002E0B4A694608BF32460CF10400DF
:10AC000000F0F2FD09B0F0BD002E074A694608BF0A
:10AC100032460CF10C0000F0B9FBF3E7783100206C
:10AC20007031002051AB020085AB02008031002062
:10AC300000F18040002382B0036003680193019B10
:10AC400002B07047044A137923B901211060918042
:10AC5000184670478520704784310020074B1A68DA
:10AC6000D20704D4C02283F8002301221A604FF0D7
:10AC700080430122C3F81825704700BF00E100E0BF
:10AC80004FF0804208B50223C2F808334FF48270B7
:10AC9000FFF7CEFF034B01211960D2F81834DB0314
:10ACA000FBD408BD0C000040124B1B6810B573B1FB
:10ACB0004FF48070FFF7BCFF4FF080430122C3F8D0
:10ACC00008230D4B587910B95A711B6898470B4BE4
:10ACD0001B6873B14FF48270FFF7AAFF4FF08043F7
:10ACE0000222C3F80823044B01201B68BDE8104072
:10ACF000184710BD000100408431002004010040CD
:10AD000000F1804000F5C040002382B0036003687A
:10AD10000193019B02B0704703681F2B83BF03F0B0
:10AD20001F03036001484FF0A0407047000300502C
:10AD300007B5019001A8FFF7EFFF019B00EB83002F
:10AD4000D0F8002722F44032C0F80027D0F80037AE
:10AD500043EA0143C0F8003703B05DF804FB430940
:10AD6000012B00F01F004FF6FF7318BF4FF0FF33A9
:10AD700023FA00F000F0010070470000054B4FF08F
:10AD8000FF32072843F8202084BF1B1883F858207F
:10AD9000704700BF8C31002010B5184C94F86A2021
:10ADA00052BBFF211046FFF7DAFF10B1A31883F85A
:10ADB00030100132302AF5D10021C8B2FFF7DEFF92
:10ADC00001310C29F9D1062200210D4806F0ABFE15
:10ADD0000C4BC02283F8062340221A604FF4BE7049
:10ADE000FFF78EFF084B4FF00042C3F80423012306
:10ADF00084F86A30002010BD0820FCE78C31002068
:10AE0000F031002000E100E000600040034B93F8C7
:10AE10006A00003018BF0120704700BF8C3100204D
:10AE2000F7B53B4E3318054693F93030002B6CDAFA
:10AE30008B78C3F34003002B0BBF082400240C20A5
:10AE40000820844202D1042003B0F0BD56F82470DB
:10AE5000013743D1701946F8242080F8304013B9E7
:10AE6000331983F858508B785A0717D4D80737D539
:10AE700001A80195FFF750FF019B00EB8300D0F87C
:10AE8000003723F00203C0F800372248EA0805F033
:10AE900007070123BB40875C3B43835488780A78CB
:10AEA00010F0020028D0A40004F1804404F5C0444E
:10AEB0002D02D4F8103523F44F3323F44073C4F833
:10AEC00010351204D4F8103505F47C5502F44032E4
:10AED00015431D43C4F810550020B5E70134B0E711
:10AEE00001A84A780195FFF717FF019B03F5E0736E
:10AEF000920040F82320C8E7083C344494F860509E
:10AF000045EA821284F860209EE708209CE700BF93
:10AF10008C310020F031002073B5224C25180646F4
:10AF200095F93020072A19DD224492F858309B0900
:10AF3000032B0FD1019001A8FFF7EEFE019AD0F884
:10AF40001035D340DB0707D402213046FFF7F0FE6F
:10AF500002B070BD012BF7D00321F6E7D3B2072B67
:10AF6000F6D8930003F1804303F5C043D3F81005EE
:10AF700040F00100C3F8100502F14000800080B2EB
:10AF8000FFF7BEFE0029E3D095F9303054F82330A6
:10AF9000002BDDD0012303FA02F2034BC3F8042394
:10AFA000D6E700BF8C3100200060004007B501905B
:10AFB00001A8FFF7B1FE019BD0F81005D84000F0C2
:10AFC000010003B05DF804FB2DE9F04F002485B0CB
:10AFD000CDE90244574D4FF48072012102F18043C4
:10AFE00003F5C04390B21B68012B06D1D5F804339A
:10AFF0000B4202D0FFF784FE0C430432B2F5907F7F
:10B000004FEA4101EAD14C4B1B68012B11D14FF49F
:10B01000BE70FFF775FE4FF0A04344F00044D3F834
:10B0200020250292C3F82025D3F820280392C3F8E4
:10B03000202814F0FF0F1AD0404F0025012634427B
:10B0400010D0AB0003F1804303F5C043D3F81005E3
:10B05000D3F8101557F8253023B1C1F30141C0F3DF
:10B06000052098470135082D4FEA4606E7D1002C08
:10B0700058DADFF8C880324FDFF8C8904FF0000B85
:10B080004FF0010A19F9011B4B1C38D0CCB224F047
:10B09000C00504AB03EBD50313F8082C04F0070339
:10B0A0000AFA03F31A422AD001A80195FFF734FEE9
:10B0B000019B03F5E07350F82360C6F30146022EAE
:10B0C0000CBF032102212846FFF732FE01A801959B
:10B0D000FFF722FE019B0AFA03F3C0F8203508EBC4
:10B0E000050393F9303058F8233043B1A1090329FF
:10B0F00003D0022E19D1012901D1284698470BF11E
:10B10000010BBBF1040FBDD14FF0A043D3F82025B4
:10B110000292C3F82025D7F820350393C7F82035CD
:10B120001343A9D105B0BDE8F08F032EE7D1022962
:10B13000E2E700BF006000407C6100408C310020ED
:10B1400000030050EC310020014B1B68184700BF82
:10B15000F83100200E4B984237B50D4602D0002042
:10B1600003B030BD00230DF107008DF80730FDF767
:10B1700049F9084B1C7914B901221D601A719DF818
:10B180000700FDF763F9002CE9D01120E8E700BFC4
:10B1900000200040F8310020034B984201BF034BD0
:10B1A00000221A601A71704700200040F831002018
:10B1B0000023435082B043580193019B02B0704773
:10B1C0000A4610B54FF48E71FFF7F2FF136A9168CB
:10B1D000C95C136A01331362C0F81C1510BD8B697A
:10B1E0000A4610B54FF4847123B9FFF7E1FFD0F898
:10B1F000183510BDFFF7DCFF536AD168D0F8180589
:10B20000C854536A01335362F3E700001FB50123AA
:10B210008DF80030044BCDE90110D3E900126846E7
:10B22000904705B05DF804FB0032002030B54D4A70
:10B23000D2F8043313F4007F85B015464FD0D2F80E
:10B240002431002B4BD04FF492711046FFF7B0FF22
:10B250004FF40173C2F80833434B93F8291009B92E
:10B26000012151603F4902228DF80020D1F880244D
:10B27000C1F8802403929A690292DA68019200224E
:10B28000C3E906226846D3E9001290473548D0F852
:10B290001C315BB134494A690B6A9A420A464BD960
:10B2A00091F82830002B47D1FFF78AFF2D4AD2F8BA
:10B2B000443193B14FF4A2711046FFF779FF2A4B46
:10B2C00093F8291009B1012111609A692AB100226D
:10B2D0009A61586AD968FFF799FF05B030BDD5F873
:10B2E00004335B07D2D5D5F80831002BCED01E4CE5
:10B2F0001C482146FFF773FF636AA2699A422346FE
:10B30000C4D1E269E1684AB12369E3600023606A5D
:10B31000A261E3616362FFF779FFB7E794F8292040
:10B320000AB901226A600F4A4FF40170C2F808039B
:10B3300000229A61586AEEE74FF48E710948FFF7D0
:10B3400037FF5369002BB1D05169029100239168F6
:10B350008DF80030019153616846D2E90013984797
:10B36000A4E700BF00200040003200201F2886BF55
:10B3700000F01F00044B4FF0A04300F5E0700222E4
:10B3800043F82020704700BF000300502DE9F84328
:10B39000604F047991462C2202FB0472064692F813
:10B3A0002A200D46002A40F0AE805B490068FFF776
:10B3B000D1FE8046002840F0A98029684A1C10D0A0
:10B3C0001F2987BF01F01F03544A0B464FF0A042CC
:10B3D0000120984003F5E073C2F80805032042F805
:10B3E00023006868431C0DD01F288BBF00F01F038B
:10B3F00003464A4A4FF0A04203F5E0734FF0000CB9
:10B4000042F823C03368AA6995F814C0C3F824250C
:10B410006A7DBCF1010F4CEA0202C3F86C25C3F847
:10B420001405C3F80C152BD1A968481C0DD01F2991
:10B430008BBF01F01F020A4638484FF0A04002F5CA
:10B44000E0724FF0000C40F822C0E868421C13D0B4
:10B450001F2887BF00F01F0C304A84464FF0A042DF
:10B460004FF0010E0EFA0CFE0CF5E07CC2F808E578
:10B470004FF0030E42F82CE0C3F80805C3F810158E
:10B480002C236343FA18C2F804902A69FA50B9F1E0
:10B49000000F20D04FF48E7130682A7FFFF788FEAE
:10B4A0004FF4A2713068FFF783FE33681C49C3F87C
:10B4B00004131B0B59B252010029D2B21EDB1948EA
:10B4C000451885F800230122490903F01F0302FAF9
:10B4D00003F340F8213033680422C3F800252C23FD
:10B4E00003FB04730022C3E9062283F829205A6172
:10B4F000012283F82A204046BDE8F88303F00F03B9
:10B500000949CA54E7E74FF00808F4E74FF011087B
:10B51000F1E700BF003200202DB20200000300500E
:10B520008000020000E100E014ED00E02DE9F041B0
:10B5300003680479284D0022C3F800252C2202FB61
:10B54000045201465268A2B1244AC3F808231B0BD7
:10B550005AB2002A0DDB0120520903F01F0300FA42
:10B5600003F320321E4840F82230BFF34F8FBFF361
:10B570006F8F0B68D3F80C05D3F81485D3F80865E2
:10B58000D3F810754FF0FF329042C3F81425C3F87A
:10B590000C25C3F80825C3F8102501D0FFF7E6FEF7
:10B5A000B8F1FF3F02D04046FFF7E0FE7A1C02D020
:10B5B0003846FFF7DBFE731C02D03046FFF7D6FE9D
:10B5C0000868FFF7E9FD2C2303FB0454002384F8EB
:10B5D0002A306360BDE8F08100320020840202005E
:10B5E00000E100E02DE9F84F224F06794FF02C09D9
:10B5F00009FB067480466569002D38D16261A1603F
:10B6000025624FF48E71006884F82850FFF7D0FD52
:10B61000D8F80000012383602146FFF7D1FD63685D
:10B62000A1469BB9D8F800A0D4F814B0236A9B4572
:10B6300012D8D8F80020D2F81C31002BFBD00123FF
:10B64000D3602C2303FB067300225A612846BDE811
:10B65000F88F94F8283043B9DAF81C31002BF8D071
:10B6600049465046FFF7ACFDE0E70F25E9E7112515
:10B67000ECE700BF003200200023435082B0435863
:10B680000193019B02B070471FB501238DF8003074
:10B69000044BCDE90110D3E900126846904705B08C
:10B6A0005DF804FB2C3200201F2886BF00F01F002D
:10B6B000044B4FF0A04300F5E070022243F8202035
:10B6C000704700BF000300507FB5454AD2F824619F
:10B6D000002E63D010464FF49271FFF7CDFF022386
:10B6E0008DF80030D2F88034C2F880340393D2F859
:10B6F0003C3502933B4BDA6801920022C3E90622F3
:10B700006846D3E900129047354AD2F844317BB1FC
:10B710004FF4A2711046FFF7AFFF324B996939B170
:10B720000021C3E90611D968D2F83C05FFF7ACFF48
:10B730002B4AD2F82031B3B14FF490711046FFF785
:10B740009BFF0123D360274B596961B1D2F84C1597
:10B750000291002299688DF8002001915A61684693
:10B76000D3E9001290471E4AD2F85831A3B14FF4E2
:10B77000AC711046FFF780FF1A4B596961B1D2F8DE
:10B780004C150291002299688DF8002001915A61B0
:10B790006846D3E90012904704B070BDD2F810316A
:10B7A000002BB1D04FF488711046FFF765FF0D4BA9
:10B7B000D2F83C0599698842A6D1DC69D96864B1A0
:10B7C000D2F8005225F02005C2F800521A699C6197
:10B7D000DA60DE61FFF758FF96E79C61FAE700BF89
:10B7E000002000402C3200202DE9F843664F0679F6
:10B7F0009146242202FB0672044692F820200D4650
:10B80000002A40F0BB8061490068FFF7A3FC804636
:10B81000002840F0B6802868421C10D01F2887BF3F
:10B8200000F01F035A4A03464FF0A04201219940FD
:10B8300003F5E073C2F80815032142F82310696884
:10B840004B1C0DD01F298BBF01F01F030B46504A24
:10B850004FF0A04203F5E0734FF0000C42F823C014
:10B860002368AA6995F814C0C3F824256A7DBCF141
:10B87000010F4CEA0202C3F86C25C3F80C05C3F8AB
:10B8800014152BD1A968481C0DD01F298BBF01F0BE
:10B890001F020A463E484FF0A04002F5E0724FF00A
:10B8A000000C40F822C0E868421C13D01F2887BF54
:10B8B00000F01F0C364A84464FF0A0424FF0010EB4
:10B8C0000EFA0CFE0CF5E07CC2F808E54FF0030E12
:10B8D00042F82CE0C3F80805C3F81015242373437D
:10B8E000FA18C2F804902A69FA50B9F1000F2FD063
:10B8F0004FF4887120682A7FFFF7BEFE4FF49071E5
:10B900002068FFF7B9FE4FF492712068FFF7B4FE8C
:10B910004FF4A2712068FFF7AFFE4FF4AC712068BE
:10B92000FFF7AAFE23681B49C3F804131B0B59B287
:10B9300052010029D2B21CDB1748451885F80023B4
:10B940000122490903F01F0302FA03F340F82130F2
:10B9500023680822C3F80025242303FB0673002272
:10B96000C3E906225A61012283F820204046BDE83F
:10B97000F88303F00F030949CA54E9E74FF00808B8
:10B98000F4E74FF01108F1E72C320020C9B60200AD
:10B99000000300501003420000E100E014ED00E05D
:10B9A0002DE9F0413C4E05790468242303FB05632F
:10B9B00007465B68A3B1394BC4F80833220B53B276
:10B9C000002B0DDB01215B0902F01F0201FA02F2DC
:10B9D0002033334941F82320BFF34F8FBFF36F8FDC
:10B9E000D4F8003223F02003C4F80032242303FBF0
:10B9F00005639B6933B14FF4A2712046FFF73CFE0B
:10BA0000012363604FF4AC712046FFF735FE01233C
:10BA1000E360242303FB0563D4F85821002AFBD0FC
:10BA20009A691AB1D4F84421002AF5D00023C4F849
:10BA300000353B68D3F80C05D3F81485D3F8081506
:10BA4000D3F810754FF0FF329042C3F80C25C3F8BD
:10BA50001425C3F80825C3F8102501D0FFF724FEEC
:10BA6000B8F1FF3F02D04046FFF71EFE7A1C02D01D
:10BA70003846FFF719FE4B1C02D00846FFF714FEAC
:10BA80002046FFF789FB242303FB0565002385F887
:10BA900020306B60BDE8F0812C32002010034200A2
:10BAA00000E100E001F06043B3F1005F2DE9F041F7
:10BAB000074638D11E4B0679242505FB06359846E6
:10BAC0006C69002C31D16A61A96000684FF49071F3
:10BAD000FFF7D2FD4FF4AC713868FFF7CDFD3B683E
:10BAE0006A69A968C3F84415C3F8482501229A6019
:10BAF0006A68AAB9D3F82021D3F858411AB9002CA2
:10BB0000F8D00F2407E0002CFBD10122DA60D3F833
:10BB10005821002AFBD0242303FB068600237361EF
:10BB20002046BDE8F0811024FAE71124F8E700BFB1
:10BB30002C3200200220FEF707BF00002DE9F0475D
:10BB400081460D46FEF72EFF0328044604D8012D3A
:10BB500004D025B3022D2FD0BDE8F087194D470042
:10BB60003A18A918AE5C4A7852B1DFF868801648D6
:10BB700042464FF48041FCF756FB08B988F8009024
:10BB80003B192B449A78114B1A55002EE4D0104BD8
:10BB90001B68002BE0D03046BDE8F04718470A4844
:10BBA000FCF759FB074B04EB440213449E78074B08
:10BBB0001B5DB342D0D1E8E7024B00EB40041C44CC
:10BBC0006678E2E7B832002078320020D1320020D7
:10BBD000CC3200205032002002210078FFF7AEBFA7
:10BBE00008B5094B1B7853B10020FEF77BFE0120FE
:10BBF000FEF778FE0320BDE80840FEF773BEBDE8FF
:10BC00000840FEF783BE00BF51320020F8B57B4CE0
:10BC1000237805461BB100232370FFF7E1FF172DA2
:10BC200000F28880DFE805F00C1717435465768032
:10BC3000888D888D959A9A9A9A9AC4C9D1D9E4E444
:10BC4000FFF7CEFF6E48FCF706FB6E4B0022044662
:10BC50001A702046F8BD0020FEF71CFEF8B1002047
:10BC6000FEF740FE022D0CBF4FF4E1614FF47A6104
:10BC7000644B1D704FF400404FF47A740025E0FBD4
:10BC800001454FF4FA6200232046294605F022FEC2
:10BC9000002201465A48BDE8F840FCF7C4BAFEF756
:10BCA0000DFE022D0CBFC8214FF4C871E0E7002043
:10BCB000FEF7F0FD40B10020FEF714FE4FF448718E
:10BCC000504B03221A70D5E7FEF7F8FDC821F7E7BD
:10BCD0000020FEF7DFFD38B10020FEF703FE4FF431
:10BCE0007A61484B0422EDE7FEF7E8FD4FF4C87196
:10BCF000F7E70020FEF7CEFD48B10020FEF7F2FD89
:10BD0000404B05221A7040F6CD410022C2E7FEF7F3
:10BD1000D5FDF5E70020FEF717FE3A4B06221A7014
:10BD2000002240F26661B5E70020FEF7C7FD354B03
:10BD300007221A7000248CE701202070FEF704FE11
:10BD4000EEE701202070FEF7FFFD00224FF40051C6
:10BD5000A0E7FEF7EAFD2B4B0C22EAE72A482B4E20
:10BD6000FCF779FAD5F1110504461CD0D8B9012D9C
:10BD700013D0C8235D434FF400474FF47A7000217D
:10BD80004FF4FA620023C7FB050105F0A3FD22462C
:10BD900001461D48FCF747FA04460220FEF78EFDD7
:10BDA0000123337055E70220FEF79CFD0023F8E7DE
:10BDB000FFF716FF134B1222BBE7FFF711FF00201E
:10BDC000FEF77CFD0F4B1322B3E7FFF709FF0120BD
:10BDD000FEF774FD0B4B1422ABE7FFF701FF0020C9
:10BDE000FEF76CFD0120FEF769FD064B1522A0E76A
:10BDF000FEF79BFD034B1D709CE700BFC83200207F
:10BE000098320020D03200205832002051320020D9
:10BE1000044B1B68DB0703D5034B1878FFF7F6BE0E
:10BE2000704700BFC4320020D0320020002910B576
:10BE300014BF03240024FEF7C7FD1F288ABF0A4B46
:10BE40004FF0A04300F01F0003EB8000D0F8002764
:10BE500022F44032C0F80027D0F8003743EA044308
:10BE6000C0F80037002010BD00030050032801D89F
:10BE7000FEF784BD00207047044B1B6813F00103DC
:10BE800001D0FFF7C3BE1846704700BFC432002080
:10BE900038B51C4B18601C4B10F0020405461960A5
:10BEA0001AD01A4B1A480E221A700F22DA7010227A
:10BEB0009A7111225A72042140F23332FCF742F88F
:10BEC000044648B9FCF794F8044628B90146114ADB
:10BED0001148FCF79DF90446EB0711D50120FEF748
:10BEE00079FD6CB921460D4A0D48FCF791F90446DD
:10BEF00030B90C4A0C480121BDE83840FCF788B93C
:10BF0000204638BDC4320020CC320020B832002098
:10BF1000BC260300D9BB0200E026030011BE0200CC
:10BF2000E426030035BB0200DC260300032813D8F7
:10BF3000012A0BD1012908D100F10E02D2B200EB87
:10BF400040000C4B1A540020704700220129F6D003
:10BF50004BB24BB1022901D007207047054B00EBD3
:10BF6000400018444270EEE7024900EB40000844EC
:10BF70008270E8E7B8320020032802D80121FFF7D9
:10BF800055BF0620704708B5012202210020FFF7A7
:10BF9000CDFF08B1072810D1072202210120FFF7A9
:10BFA000C5FF08B1072808D100210A220846FFF77B
:10BFB000BDFF10B1072808BF002008BD0388102B63
:10BFC00010B502D0112B1ED010BD1A4C2168B1B98A
:10BFD00001220846FFF7AAFF08B1072824D107224B
:10BFE00002210120FFF7A2FF08B107281CD104227B
:10BFF00002210020FFF79AFF08B1072814D1236817
:10C0000001332360E0E70B4A1368013B1360002B08
:10C01000DAD1FFF7B8FF0028D6D0074B1B68002BFA
:10C02000D2D0BDE810401847034B1B68002BE6D068
:10C030009847E4E7DC320020D832002008B5002021
:10C04000FFF79AFF08B1062806D10120FFF794FFF9
:10C0500010B1062808BF002008BD00000D4B10B528
:10C0600018600C4629B10120FFF700FF40B1022300
:10C070002370094B1B6853B9BDE81040FFF783BF1D
:10C08000FFF7F4FE08B10B23F2E72070F1E7002080
:10C0900010BD00BFD8320020DC32002076DF7047B0
:10C0A00078DF70477ADF70477CDF70478FDF70473B
:10C0B00033DF7047FBF7B2BF08B50020FFF7DCFEA7
:10C0C00008B1FBF7ABFFFFF7B9FF08B1FBF7A6FF1D
:10C0D000FFF7EEFF18B1BDE80840FBF79FBF08BDB2
:10C0E0000A2870B50FD00E2811D0042827D11D4B77
:10C0F00013211889FFF7D2FF30F008031FD0BDE8E5
:10C100007040FBF78BBFBDE87040FFF7D5BF164A04
:10C110001278A2B1154D164C2A7802F0FF067AB1BA
:10C120000021104805F05EF900222A700122034622
:10C130002270132B10D943F20142934210D170BDEB
:10C140002278002AF5D00121064805F04BF901229A
:10C150002A7003462670ECE7064ADA40D207EED48E
:10C160001846CCE7B4380020D1380020D038002061
:10C17000862800202100080013B5044604F0F8F9D1
:10C180002388212B3AD005D8102B17D0112B0AD099
:10C1900002B010BD3B2B01D0562BF9D11321A08842
:10C1A000FFF77CFF25E0194B19481A49C01AC0084F
:10C1B000000440F00300FBF745FCE9E7134B14488B
:10C1C0001549C01AC008000440F00300FBF73AFC10
:10C1D0000720FFF751FE08B1FBF720FFA1880F48A9
:10C1E00002F084FE08B1FBF719FFA1880C4801F0AA
:10C1F00077FA0028CCD0FBF711FFC9E7002301A98B
:10C20000A088ADF80430FFF751FFF2E7601C03008F
:10C21000881C0300E8260300F6260300D43800201B
:10C22000A02200200146014805F06AB8B438002079
:10C2300008B598B1032815D10B4B0C480C49C01A0E
:10C24000C008000440F00300FBF7FCFB0220FFF7EE
:10C2500013FE38B1BDE80840FBF7E0BEBDE808407A
:10C26000FFF72ABF08BD00BF601C0300881C030045
:10C270002D27030008B50B7813B1022B0CD008BD95
:10C280008A890748498805F0D7F808B1FBF7C6FE48
:10C29000044B01221A70F2E7024B0022FAE700BFBA
:10C2A000B4380020D138002008B50321044800F03C
:10C2B00062FC18B1BDE80840FBF7B0BE08BD00BF86
:10C2C000E032002010B5044604F02EF9204603F0B9
:10C2D00011FF23780C2B03D1BDE81040FFF7E4BF1A
:10C2E00010BDFBF79BBEFBF799BE000000B54FF4F5
:10C2F0008041ADB00020FBF705FA08B1FBF78EFED8
:10C30000FBF740F9FBF752FF08B1FBF787FE8049C6
:10C310000320FFF7BDFD08B1FBF780FE01A9002057
:10C32000FFF79CFE08B1FBF779FE9DF80450FEF77D
:10C3300039F808B1FBF772FE05F0E8F808B1FBF731
:10C340006DFE002301A90120019305F0A7F908B1B2
:10C35000FBF764FE01A805F053FA08B1FBF75EFE97
:10C3600011236C488DF8003005F010FC694982B249
:10C370006846FFF799FE08B1FBF750FE4FF41070C6
:10C38000FFF78EFE08B1FBF749FE0021082201A845
:10C3900005F0C9FB60494FF0C87301A8CDE901134E
:10C3A000FFF780FE08B1FBF739FE00215B4802F081
:10C3B00071FA08B1FBF732FEAC22002101A805F0AA
:10C3C000B2FB02238DF8043040F20153544AADF819
:10C3D00006300123ADF8143006928DF88030282203
:10C3E00044F25063CDE9232301A94E4B4E482A93D2
:10C3F00000F04AFB08B1FBF711FE01214A484B4C03
:10C4000000F03FFB0822002101A805F08CFB484BFF
:10C41000019301A8029401F025F908B1FBF7FEFD94
:10C42000444B4548019301A902F04EFD08B1FBF7CA
:10C43000F5FD00210C2201A805F075FB3F4B01938F
:10C440003F4B404801A9CDE9023404F099FF08B1FF
:10C45000FBF7E4FD1C22002101A805F064FB00238A
:10C460004FF4A032CDE901324FF4F02203920322BF
:10C470008DF81020ADF812300122069301A8324B3E
:10C480008DF81420079300F0BBFD08B1FBF7C6FD43
:10C4900003F0FEFA08B1FBF7C1FD0522002101A857
:10C4A00005F041FB019B03F07C42284B13430193B1
:10C4B0009DF8083023F0030343F0030301A88DF82F
:10C4C000083003F07FFB08B1FBF7A8FD204803F01C
:10C4D00061FB08B1FBF7A2FD022D15D11D4B1E48D3
:10C4E0001E49C01AC008000440F00300FBF7AAFA76
:10C4F00003F094FB08B1FBF791FDFBF753F900281B
:10C50000FBD1FDF765FFF8E7FFF7CEFEF5E700BFCB
:10C51000E1C002001827030090012003A03800208A
:10C520009C22002031C20200E0320020702800204E
:10C5300025C20200E7C20200D438002075C2020002
:10C54000B5C00200B4380020E3C202003107100376
:10C55000C5C20200601C0300881C030020270300E2
:10C560006DDF704779DF70477DDF704764DF7047AC
:10C570002DE9F04F85B000250E9CBDF83CB0278812
:10C580000191804691469A462E46B8F80020B24264
:10C590000CDC3DB12288013AD21B92B2FF2A3BD873
:10C5A0000AF80720002005B0BDE8F08FD8F8042075
:10C5B00052F82600039000220DF10B0103A8FFF7AB
:10C5C000D5FF0028EFD19DF80B204A4522D12288C3
:10C5D000002D14BF0020022002EB0901014459453F
:10C5E0001ADC45B9013292B2019B22800AF802306E
:10C5F00022880132228022880DF10B01524403A8C7
:10C60000FFF7B4FF0028CED121889DF80B200A4403
:10C61000228001250136B8E70C20C4E72DE9F3415B
:10C62000089CBDF824501746CDE900450222064675
:10C630009846FFF79DFF50B94346102239463046D1
:10C64000CDE9084502B0BDE8F041FFF791BF02B067
:10C65000BDE8F0812DE9F04F00231688138090F893
:10C660002D3085B007460D46144653B3082E01D829
:10C670000C2027E102A8FFF773FF002840F0228179
:10C6800023880822EA54238801339BB21B2223808B
:10C69000EA542088013080B2208006220DF1090181
:10C6A000284405F017FA23889DF8082006339BB22A
:10C6B00012F0FE0218BF01222380EA5423880133BE
:10C6C0002380BB78FBB123880433B342D0D802A8BF
:10C6D000FFF748FF002840F0F58023880322EA5442
:10C6E000238801339BB219222380EA542388BDF8A2
:10C6F000082001339BB2E9182380EA54120A4A70D9
:10C70000238802332380FA789AB12388D91CB14256
:10C71000AED80221E954238801339BB20121238042
:10C72000E95423880B449BB22380EA5423880B44AA
:10C7300023807A68AAB12388D91CB14298D80221F3
:10C7400092F90020E954238801339BB20A21238007
:10C75000E954238801339BB22380EA5423880133B0
:10C7600023803B89002B40F0A1803B8A5BB1CDE95F
:10C7700000462B460722032107F11000FFF74EFF6A
:10C78000002840F09F803B8B5BB1CDE900462B46F3
:10C790001522142107F11800FFF740FF002840F090
:10C7A00091803A6A002A40F09080D7F82480B8F14E
:10C7B000000F30D0B8F804302188981C8A1C02443D
:10C7C000B2423FF655AFFE283FF652AF03336B54EB
:10C7D000238801339BB2FF222380EA54238801334C
:10C7E0009BB22380B8F80020EA54E918120A4A7074
:10C7F0002088023080B22080B8F804205AB1D8F8DE
:10C80000081000296BD0284405F064F92388B8F893
:10C8100004201344238097F82C30002B40F09A809A
:10C82000387800284ED03B88012B58D0228802F15E
:10C83000020CB4453FF61CAF012805D17B780233CA
:10C8400013449E42FFF414AF023EB61AB6B202A9D8
:10C8500005EB0C00ADF80860FFF786FE90BB397859
:10C86000BDF80820022900F0BA807B78934202D3F9
:10C87000B24240F2B280012940F0B3809BB29E42A6
:10C88000C0F0AF80ADF808300821BDF80830FE2BAD
:10C890003FF6EEAE22880133AB542288013292B2C9
:10C8A0002280A9542288134423800BE0CDE900465E
:10C8B0002B460622022107F10800FFF7AFFE0028F1
:10C8C0003FF453AF05B0BDE8F08FB4F800C00CF1F1
:10C8D0000603B3423FF6CCAE1188052901D80720E4
:10C8E000F0E76FF4486E01EB0E039BB24FF27D3E12
:10C8F0007345F4D95388052BF1D96FF448601818A3
:10C9000080B27045EBD94FF6FF70814203D083426D
:10C9100001D09942E3D8052305F80C302388013370
:10C920009BB212212380E954238801339BB22380D8
:10C930001188E954E818090A4170238802339BB230
:10C9400023805288EA54E918120A4A702388023375
:10C9500023802AE7BB6A002BC1D04FF000094FF0BB
:10C960000C0A4FF0160B97F82C305FFA89F29342BD
:10C970007FF656AFB96A0AFB02F201EB0208B8F87B
:10C980000430981CFE283FF673AE208803332B54E6
:10C99000238801339BB2238005F803B02388013339
:10C9A0009BB223808A5AEA54E918120A4A702088F6
:10C9B000023080B22080B8F804205AB1D8F80810AC
:10C9C00000298CD0284405F085F82388B8F8042085
:10C9D0001344238009F10109C5E7092155E7B24253
:10C9E000FBD9ADF808604FE730B5C0B1EAB100241B
:10C9F000651C8D4206DA1588A54211D805196D7897
:10CA00009D420DD1A14210D9005D40B1013880B2E4
:10CA100028B10234A4B22318994206DB148030BD39
:10CA2000055D01352C44A4B2E2E70020F7E713B519
:10CA30000023ADF8063013460DF106020446FFF759
:10CA4000D3FF10B1BDF80600204402B010BD72DF64
:10CA5000704773DF704738B5012204460D46B0F8C1
:10CA60001414D0F81004FFF7E2FF00B1057004F1D0
:10CA70003C0204F5826104F15400BDE83840FFF740
:10CA8000E6BF80F830107047F8B504460F4600291D
:10CA90006DD000286BD091F87A301BB191F89830A6
:10CAA000002B66D107F178060FCE4FF0000C251D44
:10CAB00084F802C00FC50FCE0FC596E8070085E8C1
:10CAC000070084F830C0D7F8A4306363D7F8A830E3
:10CAD000A3634FF6FF7504F58263C4F82034A4F80D
